{
  "contractName": "cytoWave721",
  "abi": [
    {
      "inputs": [
        {
          "internalType": "string",
          "name": "name",
          "type": "string"
        },
        {
          "internalType": "string",
          "name": "symbol",
          "type": "string"
        }
      ],
      "stateMutability": "nonpayable",
      "type": "constructor"
    },
    {
      "anonymous": false,
      "inputs": [
        {
          "indexed": true,
          "internalType": "address",
          "name": "owner",
          "type": "address"
        },
        {
          "indexed": true,
          "internalType": "address",
          "name": "approved",
          "type": "address"
        },
        {
          "indexed": true,
          "internalType": "uint256",
          "name": "tokenId",
          "type": "uint256"
        }
      ],
      "name": "Approval",
      "type": "event"
    },
    {
      "anonymous": false,
      "inputs": [
        {
          "indexed": true,
          "internalType": "address",
          "name": "owner",
          "type": "address"
        },
        {
          "indexed": true,
          "internalType": "address",
          "name": "operator",
          "type": "address"
        },
        {
          "indexed": false,
          "internalType": "bool",
          "name": "approved",
          "type": "bool"
        }
      ],
      "name": "ApprovalForAll",
      "type": "event"
    },
    {
      "anonymous": false,
      "inputs": [
        {
          "indexed": false,
          "internalType": "uint256",
          "name": "_tokenId",
          "type": "uint256"
        },
        {
          "indexed": false,
          "internalType": "uint256",
          "name": "_status",
          "type": "uint256"
        },
        {
          "indexed": false,
          "internalType": "uint256",
          "name": "_price",
          "type": "uint256"
        }
      ],
      "name": "LogArtResell",
      "type": "event"
    },
    {
      "anonymous": false,
      "inputs": [
        {
          "indexed": false,
          "internalType": "uint256",
          "name": "_tokenId",
          "type": "uint256"
        },
        {
          "indexed": false,
          "internalType": "string",
          "name": "_title",
          "type": "string"
        },
        {
          "indexed": false,
          "internalType": "string",
          "name": "_authorName",
          "type": "string"
        },
        {
          "indexed": false,
          "internalType": "uint256",
          "name": "_price",
          "type": "uint256"
        },
        {
          "indexed": false,
          "internalType": "address",
          "name": "_author",
          "type": "address"
        },
        {
          "indexed": false,
          "internalType": "address",
          "name": "_current_owner",
          "type": "address"
        },
        {
          "indexed": false,
          "internalType": "address",
          "name": "_buyer",
          "type": "address"
        }
      ],
      "name": "LogArtSold",
      "type": "event"
    },
    {
      "anonymous": false,
      "inputs": [
        {
          "indexed": false,
          "internalType": "uint256",
          "name": "_tokenId",
          "type": "uint256"
        },
        {
          "indexed": false,
          "internalType": "string",
          "name": "_title",
          "type": "string"
        },
        {
          "indexed": false,
          "internalType": "string",
          "name": "_category",
          "type": "string"
        },
        {
          "indexed": false,
          "internalType": "string",
          "name": "_authorName",
          "type": "string"
        },
        {
          "indexed": false,
          "internalType": "uint256",
          "name": "_price",
          "type": "uint256"
        },
        {
          "indexed": false,
          "internalType": "address",
          "name": "_author",
          "type": "address"
        },
        {
          "indexed": false,
          "internalType": "address",
          "name": "_current_owner",
          "type": "address"
        }
      ],
      "name": "LogArtTokenCreate",
      "type": "event"
    },
    {
      "anonymous": false,
      "inputs": [
        {
          "indexed": true,
          "internalType": "address",
          "name": "from",
          "type": "address"
        },
        {
          "indexed": true,
          "internalType": "address",
          "name": "to",
          "type": "address"
        },
        {
          "indexed": true,
          "internalType": "uint256",
          "name": "tokenId",
          "type": "uint256"
        }
      ],
      "name": "Transfer",
      "type": "event"
    },
    {
      "inputs": [
        {
          "internalType": "address",
          "name": "to",
          "type": "address"
        },
        {
          "internalType": "uint256",
          "name": "tokenId",
          "type": "uint256"
        }
      ],
      "name": "approve",
      "outputs": [],
      "stateMutability": "nonpayable",
      "type": "function"
    },
    {
      "inputs": [
        {
          "internalType": "uint256",
          "name": "",
          "type": "uint256"
        }
      ],
      "name": "arts",
      "outputs": [
        {
          "internalType": "uint256",
          "name": "id",
          "type": "uint256"
        },
        {
          "internalType": "string",
          "name": "title",
          "type": "string"
        },
        {
          "internalType": "string",
          "name": "description",
          "type": "string"
        },
        {
          "internalType": "uint256",
          "name": "price",
          "type": "uint256"
        },
        {
          "internalType": "string",
          "name": "date",
          "type": "string"
        },
        {
          "internalType": "string",
          "name": "authorName",
          "type": "string"
        },
        {
          "internalType": "address payable",
          "name": "author",
          "type": "address"
        },
        {
          "internalType": "address payable",
          "name": "owner",
          "type": "address"
        },
        {
          "internalType": "uint256",
          "name": "status",
          "type": "uint256"
        },
        {
          "internalType": "string",
          "name": "image",
          "type": "string"
        }
      ],
      "stateMutability": "view",
      "type": "function",
      "constant": true
    },
    {
      "inputs": [
        {
          "internalType": "address",
          "name": "owner",
          "type": "address"
        }
      ],
      "name": "balanceOf",
      "outputs": [
        {
          "internalType": "uint256",
          "name": "",
          "type": "uint256"
        }
      ],
      "stateMutability": "view",
      "type": "function",
      "constant": true
    },
    {
      "inputs": [
        {
          "internalType": "uint256",
          "name": "tokenId",
          "type": "uint256"
        }
      ],
      "name": "getApproved",
      "outputs": [
        {
          "internalType": "address",
          "name": "",
          "type": "address"
        }
      ],
      "stateMutability": "view",
      "type": "function",
      "constant": true
    },
    {
      "inputs": [],
      "name": "index",
      "outputs": [
        {
          "internalType": "uint256",
          "name": "",
          "type": "uint256"
        }
      ],
      "stateMutability": "view",
      "type": "function",
      "constant": true
    },
    {
      "inputs": [
        {
          "internalType": "address",
          "name": "owner",
          "type": "address"
        },
        {
          "internalType": "address",
          "name": "operator",
          "type": "address"
        }
      ],
      "name": "isApprovedForAll",
      "outputs": [
        {
          "internalType": "bool",
          "name": "",
          "type": "bool"
        }
      ],
      "stateMutability": "view",
      "type": "function",
      "constant": true
    },
    {
      "inputs": [],
      "name": "name",
      "outputs": [
        {
          "internalType": "string",
          "name": "",
          "type": "string"
        }
      ],
      "stateMutability": "view",
      "type": "function",
      "constant": true
    },
    {
      "inputs": [
        {
          "internalType": "uint256",
          "name": "tokenId",
          "type": "uint256"
        }
      ],
      "name": "ownerOf",
      "outputs": [
        {
          "internalType": "address",
          "name": "",
          "type": "address"
        }
      ],
      "stateMutability": "view",
      "type": "function",
      "constant": true
    },
    {
      "inputs": [
        {
          "internalType": "address",
          "name": "from",
          "type": "address"
        },
        {
          "internalType": "address",
          "name": "to",
          "type": "address"
        },
        {
          "internalType": "uint256",
          "name": "tokenId",
          "type": "uint256"
        }
      ],
      "name": "safeTransferFrom",
      "outputs": [],
      "stateMutability": "nonpayable",
      "type": "function"
    },
    {
      "inputs": [
        {
          "internalType": "address",
          "name": "from",
          "type": "address"
        },
        {
          "internalType": "address",
          "name": "to",
          "type": "address"
        },
        {
          "internalType": "uint256",
          "name": "tokenId",
          "type": "uint256"
        },
        {
          "internalType": "bytes",
          "name": "data",
          "type": "bytes"
        }
      ],
      "name": "safeTransferFrom",
      "outputs": [],
      "stateMutability": "nonpayable",
      "type": "function"
    },
    {
      "inputs": [
        {
          "internalType": "address",
          "name": "operator",
          "type": "address"
        },
        {
          "internalType": "bool",
          "name": "approved",
          "type": "bool"
        }
      ],
      "name": "setApprovalForAll",
      "outputs": [],
      "stateMutability": "nonpayable",
      "type": "function"
    },
    {
      "inputs": [
        {
          "internalType": "bytes4",
          "name": "interfaceId",
          "type": "bytes4"
        }
      ],
      "name": "supportsInterface",
      "outputs": [
        {
          "internalType": "bool",
          "name": "",
          "type": "bool"
        }
      ],
      "stateMutability": "view",
      "type": "function",
      "constant": true
    },
    {
      "inputs": [],
      "name": "symbol",
      "outputs": [
        {
          "internalType": "string",
          "name": "",
          "type": "string"
        }
      ],
      "stateMutability": "view",
      "type": "function",
      "constant": true
    },
    {
      "inputs": [
        {
          "internalType": "uint256",
          "name": "tokenId",
          "type": "uint256"
        }
      ],
      "name": "tokenURI",
      "outputs": [
        {
          "internalType": "string",
          "name": "",
          "type": "string"
        }
      ],
      "stateMutability": "view",
      "type": "function",
      "constant": true
    },
    {
      "inputs": [
        {
          "internalType": "address",
          "name": "from",
          "type": "address"
        },
        {
          "internalType": "address",
          "name": "to",
          "type": "address"
        },
        {
          "internalType": "uint256",
          "name": "tokenId",
          "type": "uint256"
        }
      ],
      "name": "transferFrom",
      "outputs": [],
      "stateMutability": "nonpayable",
      "type": "function"
    },
    {
      "inputs": [
        {
          "internalType": "string",
          "name": "_title",
          "type": "string"
        },
        {
          "internalType": "string",
          "name": "_description",
          "type": "string"
        },
        {
          "internalType": "string",
          "name": "_date",
          "type": "string"
        },
        {
          "internalType": "string",
          "name": "_authorName",
          "type": "string"
        },
        {
          "internalType": "uint256",
          "name": "_price",
          "type": "uint256"
        },
        {
          "internalType": "string",
          "name": "_image",
          "type": "string"
        }
      ],
      "name": "createToken",
      "outputs": [],
      "stateMutability": "nonpayable",
      "type": "function"
    },
    {
      "inputs": [
        {
          "internalType": "uint256",
          "name": "_tokenId",
          "type": "uint256"
        }
      ],
      "name": "buyArt",
      "outputs": [],
      "stateMutability": "payable",
      "type": "function",
      "payable": true
    },
    {
      "inputs": [
        {
          "internalType": "uint256",
          "name": "_tokenId",
          "type": "uint256"
        }
      ],
      "name": "findArt",
      "outputs": [
        {
          "internalType": "uint256",
          "name": "",
          "type": "uint256"
        },
        {
          "internalType": "string",
          "name": "",
          "type": "string"
        },
        {
          "internalType": "string",
          "name": "",
          "type": "string"
        },
        {
          "internalType": "uint256",
          "name": "",
          "type": "uint256"
        },
        {
          "internalType": "uint256",
          "name": "status",
          "type": "uint256"
        },
        {
          "internalType": "string",
          "name": "",
          "type": "string"
        },
        {
          "internalType": "string",
          "name": "",
          "type": "string"
        },
        {
          "internalType": "address",
          "name": "",
          "type": "address"
        },
        {
          "internalType": "address payable",
          "name": "",
          "type": "address"
        },
        {
          "internalType": "string",
          "name": "",
          "type": "string"
        }
      ],
      "stateMutability": "view",
      "type": "function",
      "constant": true
    },
    {
      "inputs": [
        {
          "internalType": "uint256",
          "name": "_tokenId",
          "type": "uint256"
        },
        {
          "internalType": "uint256",
          "name": "_price",
          "type": "uint256"
        }
      ],
      "name": "resellArt",
      "outputs": [],
      "stateMutability": "nonpayable",
      "type": "function"
    },
    {
      "inputs": [],
      "name": "findAllPendingArt",
      "outputs": [
        {
          "internalType": "uint256[]",
          "name": "",
          "type": "uint256[]"
        },
        {
          "internalType": "address[]",
          "name": "",
          "type": "address[]"
        },
        {
          "internalType": "address[]",
          "name": "",
          "type": "address[]"
        },
        {
          "internalType": "uint256[]",
          "name": "",
          "type": "uint256[]"
        }
      ],
      "stateMutability": "view",
      "type": "function",
      "constant": true
    },
    {
      "inputs": [],
      "name": "findMyArts",
      "outputs": [
        {
          "internalType": "uint256[]",
          "name": "_myArts",
          "type": "uint256[]"
        }
      ],
      "stateMutability": "view",
      "type": "function",
      "constant": true
    },
    {
      "inputs": [
        {
          "internalType": "uint256",
          "name": "tokenId",
          "type": "uint256"
        },
        {
          "internalType": "address",
          "name": "account",
          "type": "address"
        }
      ],
      "name": "isOwnerOf",
      "outputs": [
        {
          "internalType": "bool",
          "name": "",
          "type": "bool"
        }
      ],
      "stateMutability": "view",
      "type": "function",
      "constant": true
    },
    {
      "inputs": [],
      "name": "get_symbol",
      "outputs": [
        {
          "internalType": "string",
          "name": "",
          "type": "string"
        }
      ],
      "stateMutability": "view",
      "type": "function",
      "constant": true
    },
    {
      "inputs": [],
      "name": "get_name",
      "outputs": [
        {
          "internalType": "string",
          "name": "",
          "type": "string"
        }
      ],
      "stateMutability": "view",
      "type": "function",
      "constant": true
    },
    {
      "inputs": [],
      "name": "getArtCount",
      "outputs": [
        {
          "internalType": "uint256",
          "name": "",
          "type": "uint256"
        }
      ],
      "stateMutability": "view",
      "type": "function",
      "constant": true
    }
  ],
  "bytecode": "0x60806040523480156200001157600080fd5b50604051620053b2380380620053b28339818101604052810190620000379190620002c2565b818181600090805190602001906200005192919062000075565b5080600190805190602001906200006a92919062000075565b5050505050620003ac565b828054620000839062000376565b90600052602060002090601f016020900481019282620000a75760008555620000f3565b82601f10620000c257805160ff1916838001178555620000f3565b82800160010185558215620000f3579182015b82811115620000f2578251825591602001919060010190620000d5565b5b50905062000102919062000106565b5090565b5b808211156200012157600081600090555060010162000107565b5090565b6000604051905090565b600080fd5b600080fd5b600080fd5b600080fd5b6000601f19601f8301169050919050565b7f4e487b7100000000000000000000000000000000000000000000000000000000600052604160045260246000fd5b6200018e8262000143565b810181811067ffffffffffffffff82111715620001b057620001af62000154565b5b80604052505050565b6000620001c562000125565b9050620001d3828262000183565b919050565b600067ffffffffffffffff821115620001f657620001f562000154565b5b620002018262000143565b9050602081019050919050565b60005b838110156200022e57808201518184015260208101905062000211565b838111156200023e576000848401525b50505050565b60006200025b6200025584620001d8565b620001b9565b9050828152602081018484840111156200027a57620002796200013e565b5b620002878482856200020e565b509392505050565b600082601f830112620002a757620002a662000139565b5b8151620002b984826020860162000244565b91505092915050565b60008060408385031215620002dc57620002db6200012f565b5b600083015167ffffffffffffffff811115620002fd57620002fc62000134565b5b6200030b858286016200028f565b925050602083015167ffffffffffffffff8111156200032f576200032e62000134565b5b6200033d858286016200028f565b9150509250929050565b7f4e487b7100000000000000000000000000000000000000000000000000000000600052602260045260246000fd5b600060028204905060018216806200038f57607f821691505b60208210811415620003a657620003a562000347565b5b50919050565b614ff680620003bc6000396000f3fe6080604052600436106101665760003560e01c806364262dcc116100d1578063be0da33d1161008a578063d2c0880211610064578063d2c088021461056e578063e57a104a14610599578063e985e9c5146105df578063fc7a900b1461061c57610166565b8063be0da33d146104c0578063c87b56dd146104eb578063ce971a101461052857610166565b806364262dcc146103a057806370a08231146103c957806395d89b41146104065780639ac016e214610431578063a22cb4651461046e578063b88d4fde1461049757610166565b80632986c0e5116101235780632986c0e514610290578063301b5ab8146102bb57806332cf43f8146102e65780633a525c291461030f57806342842e0e1461033a5780636352211e1461036357610166565b806301ffc9a71461016b578063063fc966146101a857806306fdde03146101d6578063081812fc14610201578063095ea7b31461023e57806323b872dd14610267575b600080fd5b34801561017757600080fd5b50610192600480360381019061018d919061375a565b610638565b60405161019f91906137a2565b60405180910390f35b3480156101b457600080fd5b506101bd61071a565b6040516101cd9493929190613975565b60405180910390f35b3480156101e257600080fd5b506101eb610ebe565b6040516101f89190613a6f565b60405180910390f35b34801561020d57600080fd5b5061022860048036038101906102239190613abd565b610f50565b6040516102359190613af9565b60405180910390f35b34801561024a57600080fd5b5061026560048036038101906102609190613b40565b610f96565b005b34801561027357600080fd5b5061028e60048036038101906102899190613b80565b6110ae565b005b34801561029c57600080fd5b506102a561110e565b6040516102b29190613be2565b60405180910390f35b3480156102c757600080fd5b506102d0611114565b6040516102dd9190613a6f565b60405180910390f35b3480156102f257600080fd5b5061030d60048036038101906103089190613d32565b611123565b005b34801561031b57600080fd5b506103246114f9565b6040516103319190613a6f565b60405180910390f35b34801561034657600080fd5b50610361600480360381019061035c9190613b80565b611508565b005b34801561036f57600080fd5b5061038a60048036038101906103859190613abd565b611528565b6040516103979190613af9565b60405180910390f35b3480156103ac57600080fd5b506103c760048036038101906103c29190613e4b565b6115af565b005b3480156103d557600080fd5b506103f060048036038101906103eb9190613e8b565b61174b565b6040516103fd9190613be2565b60405180910390f35b34801561041257600080fd5b5061041b611803565b6040516104289190613a6f565b60405180910390f35b34801561043d57600080fd5b5061045860048036038101906104539190613eb8565b611895565b60405161046591906137a2565b60405180910390f35b34801561047a57600080fd5b5061049560048036038101906104909190613f24565b611915565b005b3480156104a357600080fd5b506104be60048036038101906104b99190614005565b61192b565b005b3480156104cc57600080fd5b506104d561198d565b6040516104e29190613be2565b60405180910390f35b3480156104f757600080fd5b50610512600480360381019061050d9190613abd565b6119a6565b60405161051f9190613a6f565b60405180910390f35b34801561053457600080fd5b5061054f600480360381019061054a9190613abd565b611a0e565b6040516105659a999897969594939291906140a9565b60405180910390f35b34801561057a57600080fd5b50610583611e4a565b6040516105909190614168565b60405180910390f35b3480156105a557600080fd5b506105c060048036038101906105bb9190613abd565b611fdb565b6040516105d69a9998979695949392919061418a565b60405180910390f35b3480156105eb57600080fd5b5061060660048036038101906106019190614249565b612327565b60405161061391906137a2565b60405180910390f35b61063660048036038101906106319190613abd565b6123bb565b005b60007f80ac58cd000000000000000000000000000000000000000000000000000000007bffffffffffffffffffffffffffffffffffffffffffffffffffffffff1916827bffffffffffffffffffffffffffffffffffffffffffffffffffffffff1916148061070357507f5b5e139f000000000000000000000000000000000000000000000000000000007bffffffffffffffffffffffffffffffffffffffffffffffffffffffff1916827bffffffffffffffffffffffffffffffffffffffffffffffffffffffff1916145b80610713575061071282612860565b5b9050919050565b6060806060806000600654141561086057600067ffffffffffffffff81111561074657610745613c07565b5b6040519080825280602002602001820160405280156107745781602001602082028036833780820191505090505b50600067ffffffffffffffff8111156107905761078f613c07565b5b6040519080825280602002602001820160405280156107be5781602001602082028036833780820191505090505b50600067ffffffffffffffff8111156107da576107d9613c07565b5b6040519080825280602002602001820160405280156108085781602001602082028036833780820191505090505b50600067ffffffffffffffff81111561082457610823613c07565b5b6040519080825280602002602001820160405280156108525781602001602082028036833780820191505090505b509350935093509350610eb8565b60006009805490509050600060065467ffffffffffffffff81111561088857610887613c07565b5b6040519080825280602002602001820160405280156108b65781602001602082028036833780820191505090505b509050600060065467ffffffffffffffff8111156108d7576108d6613c07565b5b6040519080825280602002602001820160405280156109055781602001602082028036833780820191505090505b509050600060065467ffffffffffffffff81111561092657610925613c07565b5b6040519080825280602002602001820160405280156109545781602001602082028036833780820191505090505b509050600060065467ffffffffffffffff81111561097557610974613c07565b5b6040519080825280602002602001820160405280156109a35781602001602082028036833780820191505090505b5090506000805b86811015610ea4576000600982815481106109c8576109c7614289565b5b90600052602060002090600a020160405180610140016040529081600082015481526020016001820180546109fc906142e7565b80601f0160208091040260200160405190810160405280929190818152602001828054610a28906142e7565b8015610a755780601f10610a4a57610100808354040283529160200191610a75565b820191906000526020600020905b815481529060010190602001808311610a5857829003601f168201915b50505050508152602001600282018054610a8e906142e7565b80601f0160208091040260200160405190810160405280929190818152602001828054610aba906142e7565b8015610b075780601f10610adc57610100808354040283529160200191610b07565b820191906000526020600020905b815481529060010190602001808311610aea57829003601f168201915b5050505050815260200160038201548152602001600482018054610b2a906142e7565b80601f0160208091040260200160405190810160405280929190818152602001828054610b56906142e7565b8015610ba35780601f10610b7857610100808354040283529160200191610ba3565b820191906000526020600020905b815481529060010190602001808311610b8657829003601f168201915b50505050508152602001600582018054610bbc906142e7565b80601f0160208091040260200160405190810160405280929190818152602001828054610be8906142e7565b8015610c355780601f10610c0a57610100808354040283529160200191610c35565b820191906000526020600020905b815481529060010190602001808311610c1857829003601f168201915b505050505081526020016006820160009054906101000a900473ffffffffffffffffffffffffffffffffffffffff1673ffffffffffffffffffffffffffffffffffffffff1673ffffffffffffffffffffffffffffffffffffffff1681526020016007820160009054906101000a900473ffffffffffffffffffffffffffffffffffffffff1673ffffffffffffffffffffffffffffffffffffffff1673ffffffffffffffffffffffffffffffffffffffff16815260200160088201548152602001600982018054610d04906142e7565b80601f0160208091040260200160405190810160405280929190818152602001828054610d30906142e7565b8015610d7d5780601f10610d5257610100808354040283529160200191610d7d565b820191906000526020600020905b815481529060010190602001808311610d6057829003601f168201915b505050505081525050905060018161010001511415610e92578060000151878481518110610dae57610dad614289565b5b6020026020010181815250508060c00151868481518110610dd257610dd1614289565b5b602002602001019073ffffffffffffffffffffffffffffffffffffffff16908173ffffffffffffffffffffffffffffffffffffffff16815250508060e00151858481518110610e2457610e23614289565b5b602002602001019073ffffffffffffffffffffffffffffffffffffffff16908173ffffffffffffffffffffffffffffffffffffffff1681525050806101000151848481518110610e7757610e76614289565b5b6020026020010181815250508280610e8e90614348565b9350505b5080610e9d90614348565b90506109aa565b508484848499509950995099505050505050505b90919293565b606060008054610ecd906142e7565b80601f0160208091040260200160405190810160405280929190818152602001828054610ef9906142e7565b8015610f465780601f10610f1b57610100808354040283529160200191610f46565b820191906000526020600020905b815481529060010190602001808311610f2957829003601f168201915b5050505050905090565b6000610f5b826128ca565b6004600083815260200190815260200160002060009054906101000a900473ffffffffffffffffffffffffffffffffffffffff169050919050565b6000610fa182611528565b90508073ffffffffffffffffffffffffffffffffffffffff168373ffffffffffffffffffffffffffffffffffffffff161415611012576040517f08c379a000000000000000000000000000000000000000000000000000000000815260040161100990614403565b60405180910390fd5b8073ffffffffffffffffffffffffffffffffffffffff16611031612915565b73ffffffffffffffffffffffffffffffffffffffff161480611060575061105f8161105a612915565b612327565b5b61109f576040517f08c379a000000000000000000000000000000000000000000000000000000000815260040161109690614495565b60405180910390fd5b6110a9838361291d565b505050565b6110bf6110b9612915565b826129d6565b6110fe576040517f08c379a00000000000000000000000000000000000000000000000000000000081526004016110f590614527565b60405180910390fd5b611109838383612a6b565b505050565b60085481565b606061111e611803565b905090565b6000865111611167576040517f08c379a000000000000000000000000000000000000000000000000000000000815260040161115e90614593565b60405180910390fd5b60008451116111ab576040517f08c379a00000000000000000000000000000000000000000000000000000000081526004016111a2906145ff565b60405180910390fd5b60008551116111ef576040517f08c379a00000000000000000000000000000000000000000000000000000000081526004016111e69061466b565b60405180910390fd5b60008211611232576040517f08c379a0000000000000000000000000000000000000000000000000000000008152600401611229906146d7565b60405180910390fd5b6000815111611276576040517f08c379a000000000000000000000000000000000000000000000000000000000815260040161126d90614743565b60405180910390fd5b600060405180610140016040528060085481526020018881526020018781526020018481526020018681526020018581526020013373ffffffffffffffffffffffffffffffffffffffff1681526020013373ffffffffffffffffffffffffffffffffffffffff1681526020016001815260200183815250905060098190806001815401808255809150506001900390600052602060002090600a020160009091909190915060008201518160000155602082015181600101908051906020019061134192919061364b565b50604082015181600201908051906020019061135e92919061364b565b5060608201518160030155608082015181600401908051906020019061138592919061364b565b5060a08201518160050190805190602001906113a292919061364b565b5060c08201518160060160006101000a81548173ffffffffffffffffffffffffffffffffffffffff021916908373ffffffffffffffffffffffffffffffffffffffff16021790555060e08201518160070160006101000a81548173ffffffffffffffffffffffffffffffffffffffff021916908373ffffffffffffffffffffffffffffffffffffffff160217905550610100820151816008015561012082015181600901908051906020019061145992919061364b565b505050600060016009805490506114709190614763565b905061147c3382612d65565b7ff376cc32e072d5cce6d2829c66b30d30fa0bd8fccda5e8fc27dab25430505715818988888833336040516114b79796959493929190614797565b60405180910390a1600860008154809291906114d290614348565b9190505550600660008154809291906114ea90614348565b91905055505050505050505050565b6060611503610ebe565b905090565b6115238383836040518060200160405280600081525061192b565b505050565b60008061153483612d83565b9050600073ffffffffffffffffffffffffffffffffffffffff168173ffffffffffffffffffffffffffffffffffffffff1614156115a6576040517f08c379a000000000000000000000000000000000000000000000000000000000815260040161159d90614867565b60405180910390fd5b80915050919050565b60008110156115f3576040517f08c379a00000000000000000000000000000000000000000000000000000000081526004016115ea906148f9565b60405180910390fd5b600073ffffffffffffffffffffffffffffffffffffffff163373ffffffffffffffffffffffffffffffffffffffff16141561162d57600080fd5b6116378233611895565b61164057600080fd5b60008114156116795760006009838154811061165f5761165e614289565b5b90600052602060002090600a0201600801819055506116e7565b60016009838154811061168f5761168e614289565b5b90600052602060002090600a02016008018190555080600983815481106116b9576116b8614289565b5b90600052602060002090600a020160030181905550600660008154809291906116e190614348565b91905055505b7f8916ae292317d6f324a5ed02fea84bf6881d4065b6d575a8980442469b882b7a826009848154811061171d5761171c614289565b5b90600052602060002090600a0201600801548360405161173f93929190614919565b60405180910390a15050565b60008073ffffffffffffffffffffffffffffffffffffffff168273ffffffffffffffffffffffffffffffffffffffff1614156117bc576040517f08c379a00000000000000000000000000000000000000000000000000000000081526004016117b3906149c2565b60405180910390fd5b600360008373ffffffffffffffffffffffffffffffffffffffff1673ffffffffffffffffffffffffffffffffffffffff168152602001908152602001600020549050919050565b606060018054611812906142e7565b80601f016020809104026020016040519081016040528092919081815260200182805461183e906142e7565b801561188b5780601f106118605761010080835404028352916020019161188b565b820191906000526020600020905b81548152906001019060200180831161186e57829003601f168201915b5050505050905090565b6000806118a184611528565b9050600073ffffffffffffffffffffffffffffffffffffffff168173ffffffffffffffffffffffffffffffffffffffff1614156118dd57600080fd5b8273ffffffffffffffffffffffffffffffffffffffff168173ffffffffffffffffffffffffffffffffffffffff161491505092915050565b611927611920612915565b8383612dc0565b5050565b61193c611936612915565b836129d6565b61197b576040517f08c379a000000000000000000000000000000000000000000000000000000000815260040161197290614527565b60405180910390fd5b61198784848484612f2d565b50505050565b600060016009805490506119a19190614763565b905090565b60606119b1826128ca565b60006119bb612f89565b905060008151116119db5760405180602001604052806000815250611a06565b806119e584612fa0565b6040516020016119f6929190614a1e565b6040516020818303038152906040525b915050919050565b60006060806000806060806000806060600060098c81548110611a3457611a33614289565b5b90600052602060002090600a02016040518061014001604052908160008201548152602001600182018054611a68906142e7565b80601f0160208091040260200160405190810160405280929190818152602001828054611a94906142e7565b8015611ae15780601f10611ab657610100808354040283529160200191611ae1565b820191906000526020600020905b815481529060010190602001808311611ac457829003601f168201915b50505050508152602001600282018054611afa906142e7565b80601f0160208091040260200160405190810160405280929190818152602001828054611b26906142e7565b8015611b735780601f10611b4857610100808354040283529160200191611b73565b820191906000526020600020905b815481529060010190602001808311611b5657829003601f168201915b5050505050815260200160038201548152602001600482018054611b96906142e7565b80601f0160208091040260200160405190810160405280929190818152602001828054611bc2906142e7565b8015611c0f5780601f10611be457610100808354040283529160200191611c0f565b820191906000526020600020905b815481529060010190602001808311611bf257829003601f168201915b50505050508152602001600582018054611c28906142e7565b80601f0160208091040260200160405190810160405280929190818152602001828054611c54906142e7565b8015611ca15780601f10611c7657610100808354040283529160200191611ca1565b820191906000526020600020905b815481529060010190602001808311611c8457829003601f168201915b505050505081526020016006820160009054906101000a900473ffffffffffffffffffffffffffffffffffffffff1673ffffffffffffffffffffffffffffffffffffffff1673ffffffffffffffffffffffffffffffffffffffff1681526020016007820160009054906101000a900473ffffffffffffffffffffffffffffffffffffffff1673ffffffffffffffffffffffffffffffffffffffff1673ffffffffffffffffffffffffffffffffffffffff16815260200160088201548152602001600982018054611d70906142e7565b80601f0160208091040260200160405190810160405280929190818152602001828054611d9c906142e7565b8015611de95780601f10611dbe57610100808354040283529160200191611de9565b820191906000526020600020905b815481529060010190602001808311611dcc57829003601f168201915b5050505050815250509050806000015181602001518260400151836060015184610100015185608001518660a001518760c001518860e001518961012001519a509a509a509a509a509a509a509a509a509a50509193959799509193959799565b6060600073ffffffffffffffffffffffffffffffffffffffff163373ffffffffffffffffffffffffffffffffffffffff161415611e8657600080fd5b6000611e913361174b565b90506000811415611eee57600067ffffffffffffffff811115611eb757611eb6613c07565b5b604051908082528060200260200182016040528015611ee55781602001602082028036833780820191505090505b50915050611fd8565b60008167ffffffffffffffff811115611f0a57611f09613c07565b5b604051908082528060200260200182016040528015611f385781602001602082028036833780820191505090505b509050600080600980549050905060005b81811015611fcf573373ffffffffffffffffffffffffffffffffffffffff16611f7182611528565b73ffffffffffffffffffffffffffffffffffffffff161415611fbc5780848481518110611fa157611fa0614289565b5b6020026020010181815250508280611fb890614348565b9350505b8080611fc790614348565b915050611f49565b50829450505050505b90565b60098181548110611feb57600080fd5b90600052602060002090600a0201600091509050806000015490806001018054612014906142e7565b80601f0160208091040260200160405190810160405280929190818152602001828054612040906142e7565b801561208d5780601f106120625761010080835404028352916020019161208d565b820191906000526020600020905b81548152906001019060200180831161207057829003601f168201915b5050505050908060020180546120a2906142e7565b80601f01602080910402602001604051908101604052809291908181526020018280546120ce906142e7565b801561211b5780601f106120f05761010080835404028352916020019161211b565b820191906000526020600020905b8154815290600101906020018083116120fe57829003601f168201915b505050505090806003015490806004018054612136906142e7565b80601f0160208091040260200160405190810160405280929190818152602001828054612162906142e7565b80156121af5780601f10612184576101008083540402835291602001916121af565b820191906000526020600020905b81548152906001019060200180831161219257829003601f168201915b5050505050908060050180546121c4906142e7565b80601f01602080910402602001604051908101604052809291908181526020018280546121f0906142e7565b801561223d5780601f106122125761010080835404028352916020019161223d565b820191906000526020600020905b81548152906001019060200180831161222057829003601f168201915b5050505050908060060160009054906101000a900473ffffffffffffffffffffffffffffffffffffffff16908060070160009054906101000a900473ffffffffffffffffffffffffffffffffffffffff16908060080154908060090180546122a4906142e7565b80601f01602080910402602001604051908101604052809291908181526020018280546122d0906142e7565b801561231d5780601f106122f25761010080835404028352916020019161231d565b820191906000526020600020905b81548152906001019060200180831161230057829003601f168201915b505050505090508a565b6000600560008473ffffffffffffffffffffffffffffffffffffffff1673ffffffffffffffffffffffffffffffffffffffff16815260200190815260200160002060008373ffffffffffffffffffffffffffffffffffffffff1673ffffffffffffffffffffffffffffffffffffffff16815260200190815260200160002060009054906101000a900460ff16905092915050565b60008060008060008060006123cf88611a0e565b5098509850985050975097505096509650600073ffffffffffffffffffffffffffffffffffffffff168173ffffffffffffffffffffffffffffffffffffffff16141561241a57600080fd5b600073ffffffffffffffffffffffffffffffffffffffff163373ffffffffffffffffffffffffffffffffffffffff16141561245457600080fd5b8073ffffffffffffffffffffffffffffffffffffffff163373ffffffffffffffffffffffffffffffffffffffff16141561248d57600080fd5b600184146124d0576040517f08c379a00000000000000000000000000000000000000000000000000000000081526004016124c790614a8e565b60405180910390fd5b843410156124dd57600080fd5b600073ffffffffffffffffffffffffffffffffffffffff166009898154811061250957612508614289565b5b90600052602060002090600a020160070160009054906101000a900473ffffffffffffffffffffffffffffffffffffffff1673ffffffffffffffffffffffffffffffffffffffff16141561255c57600080fd5b61257781338a60405180602001604052806000815250612f2d565b843411156125d2573373ffffffffffffffffffffffffffffffffffffffff166108fc86346125a59190614763565b9081150290604051600060405180830381858888f193505050501580156125d0573d6000803e3d6000fd5b505b8073ffffffffffffffffffffffffffffffffffffffff166108fc869081150290604051600060405180830381858888f19350505050158015612618573d6000803e3d6000fd5b50336009898154811061262e5761262d614289565b5b90600052602060002090600a020160070160006101000a81548173ffffffffffffffffffffffffffffffffffffffff021916908373ffffffffffffffffffffffffffffffffffffffff16021790555060006009898154811061269357612692614289565b5b90600052602060002090600a02016008018190555060006040518060c001604052808981526020018781526020018373ffffffffffffffffffffffffffffffffffffffff1681526020013373ffffffffffffffffffffffffffffffffffffffff16815260200142815260200186815250905060076000898152602001908152602001600020819080600181540180825580915050600190039060005260206000209060060201600090919091909150600082015181600001556020820151816001015560408201518160020160006101000a81548173ffffffffffffffffffffffffffffffffffffffff021916908373ffffffffffffffffffffffffffffffffffffffff16021790555060608201518160030160006101000a81548173ffffffffffffffffffffffffffffffffffffffff021916908373ffffffffffffffffffffffffffffffffffffffff1602179055506080820151816004015560a0820151816005015550506006600081548092919061280d90614aae565b91905055507f33157a2d6e087f53ff6fc0edba4550aa6df53452ece435476cd3ab334ad50c348988868987873360405161284d9796959493929190614b37565b60405180910390a1505050505050505050565b60007f01ffc9a7000000000000000000000000000000000000000000000000000000007bffffffffffffffffffffffffffffffffffffffffffffffffffffffff1916827bffffffffffffffffffffffffffffffffffffffffffffffffffffffff1916149050919050565b6128d381613078565b612912576040517f08c379a000000000000000000000000000000000000000000000000000000000815260040161290990614867565b60405180910390fd5b50565b600033905090565b816004600083815260200190815260200160002060006101000a81548173ffffffffffffffffffffffffffffffffffffffff021916908373ffffffffffffffffffffffffffffffffffffffff160217905550808273ffffffffffffffffffffffffffffffffffffffff1661299083611528565b73ffffffffffffffffffffffffffffffffffffffff167f8c5be1e5ebec7d5bd14f71427d1e84f3dd0314c0f7b2291e5b200ac8c7c3b92560405160405180910390a45050565b6000806129e283611528565b90508073ffffffffffffffffffffffffffffffffffffffff168473ffffffffffffffffffffffffffffffffffffffff161480612a245750612a238185612327565b5b80612a6257508373ffffffffffffffffffffffffffffffffffffffff16612a4a84610f50565b73ffffffffffffffffffffffffffffffffffffffff16145b91505092915050565b8273ffffffffffffffffffffffffffffffffffffffff16612a8b82611528565b73ffffffffffffffffffffffffffffffffffffffff1614612ae1576040517f08c379a0000000000000000000000000000000000000000000000000000000008152600401612ad890614c26565b60405180910390fd5b600073ffffffffffffffffffffffffffffffffffffffff168273ffffffffffffffffffffffffffffffffffffffff161415612b51576040517f08c379a0000000000000000000000000000000000000000000000000000000008152600401612b4890614cb8565b60405180910390fd5b612b5e83838360016130b9565b8273ffffffffffffffffffffffffffffffffffffffff16612b7e82611528565b73ffffffffffffffffffffffffffffffffffffffff1614612bd4576040517f08c379a0000000000000000000000000000000000000000000000000000000008152600401612bcb90614c26565b60405180910390fd5b6004600082815260200190815260200160002060006101000a81549073ffffffffffffffffffffffffffffffffffffffff02191690556001600360008573ffffffffffffffffffffffffffffffffffffffff1673ffffffffffffffffffffffffffffffffffffffff168152602001908152602001600020600082825403925050819055506001600360008473ffffffffffffffffffffffffffffffffffffffff1673ffffffffffffffffffffffffffffffffffffffff16815260200190815260200160002060008282540192505081905550816002600083815260200190815260200160002060006101000a81548173ffffffffffffffffffffffffffffffffffffffff021916908373ffffffffffffffffffffffffffffffffffffffff160217905550808273ffffffffffffffffffffffffffffffffffffffff168473ffffffffffffffffffffffffffffffffffffffff167fddf252ad1be2c89b69c2b068fc378daa952ba7f163c4a11628f55a4df523b3ef60405160405180910390a4612d6083838360016130bf565b505050565b612d7f8282604051806020016040528060008152506130c5565b5050565b60006002600083815260200190815260200160002060009054906101000a900473ffffffffffffffffffffffffffffffffffffffff169050919050565b8173ffffffffffffffffffffffffffffffffffffffff168373ffffffffffffffffffffffffffffffffffffffff161415612e2f576040517f08c379a0000000000000000000000000000000000000000000000000000000008152600401612e2690614d24565b60405180910390fd5b80600560008573ffffffffffffffffffffffffffffffffffffffff1673ffffffffffffffffffffffffffffffffffffffff16815260200190815260200160002060008473ffffffffffffffffffffffffffffffffffffffff1673ffffffffffffffffffffffffffffffffffffffff16815260200190815260200160002060006101000a81548160ff0219169083151502179055508173ffffffffffffffffffffffffffffffffffffffff168373ffffffffffffffffffffffffffffffffffffffff167f17307eab39ab6107e8899845ad3d59bd9653f200f220920489ca2b5937696c3183604051612f2091906137a2565b60405180910390a3505050565b612f38848484612a6b565b612f4484848484613120565b612f83576040517f08c379a0000000000000000000000000000000000000000000000000000000008152600401612f7a90614db6565b60405180910390fd5b50505050565b606060405180602001604052806000815250905090565b606060006001612faf846132b7565b01905060008167ffffffffffffffff811115612fce57612fcd613c07565b5b6040519080825280601f01601f1916602001820160405280156130005781602001600182028036833780820191505090505b509050600082602001820190505b60011561306d578080600190039150507f3031323334353637383961626364656600000000000000000000000000000000600a86061a8153600a858161305757613056614dd6565b5b04945060008514156130685761306d565b61300e565b819350505050919050565b60008073ffffffffffffffffffffffffffffffffffffffff1661309a83612d83565b73ffffffffffffffffffffffffffffffffffffffff1614159050919050565b50505050565b50505050565b6130cf838361340a565b6130dc6000848484613120565b61311b576040517f08c379a000000000000000000000000000000000000000000000000000000000815260040161311290614db6565b60405180910390fd5b505050565b60006131418473ffffffffffffffffffffffffffffffffffffffff16613628565b156132aa578373ffffffffffffffffffffffffffffffffffffffff1663150b7a0261316a612915565b8786866040518563ffffffff1660e01b815260040161318c9493929190614e5a565b602060405180830381600087803b1580156131a657600080fd5b505af19250505080156131d757506040513d601f19601f820116820180604052508101906131d49190614ebb565b60015b61325a573d8060008114613207576040519150601f19603f3d011682016040523d82523d6000602084013e61320c565b606091505b50600081511415613252576040517f08c379a000000000000000000000000000000000000000000000000000000000815260040161324990614db6565b60405180910390fd5b805181602001fd5b63150b7a0260e01b7bffffffffffffffffffffffffffffffffffffffffffffffffffffffff1916817bffffffffffffffffffffffffffffffffffffffffffffffffffffffff1916149150506132af565b600190505b949350505050565b600080600090507a184f03e93ff9f4daa797ed6e38ed64bf6a1f0100000000000000008310613315577a184f03e93ff9f4daa797ed6e38ed64bf6a1f010000000000000000838161330b5761330a614dd6565b5b0492506040810190505b6d04ee2d6d415b85acef81000000008310613352576d04ee2d6d415b85acef8100000000838161334857613347614dd6565b5b0492506020810190505b662386f26fc10000831061338157662386f26fc10000838161337757613376614dd6565b5b0492506010810190505b6305f5e10083106133aa576305f5e10083816133a05761339f614dd6565b5b0492506008810190505b61271083106133cf5761271083816133c5576133c4614dd6565b5b0492506004810190505b606483106133f257606483816133e8576133e7614dd6565b5b0492506002810190505b600a8310613401576001810190505b80915050919050565b600073ffffffffffffffffffffffffffffffffffffffff168273ffffffffffffffffffffffffffffffffffffffff16141561347a576040517f08c379a000000000000000000000000000000000000000000000000000000000815260040161347190614f34565b60405180910390fd5b61348381613078565b156134c3576040517f08c379a00000000000000000000000000000000000000000000000000000000081526004016134ba90614fa0565b60405180910390fd5b6134d16000838360016130b9565b6134da81613078565b1561351a576040517f08c379a000000000000000000000000000000000000000000000000000000000815260040161351190614fa0565b60405180910390fd5b6001600360008473ffffffffffffffffffffffffffffffffffffffff1673ffffffffffffffffffffffffffffffffffffffff16815260200190815260200160002060008282540192505081905550816002600083815260200190815260200160002060006101000a81548173ffffffffffffffffffffffffffffffffffffffff021916908373ffffffffffffffffffffffffffffffffffffffff160217905550808273ffffffffffffffffffffffffffffffffffffffff16600073ffffffffffffffffffffffffffffffffffffffff167fddf252ad1be2c89b69c2b068fc378daa952ba7f163c4a11628f55a4df523b3ef60405160405180910390a46136246000838360016130bf565b5050565b6000808273ffffffffffffffffffffffffffffffffffffffff163b119050919050565b828054613657906142e7565b90600052602060002090601f01602090048101928261367957600085556136c0565b82601f1061369257805160ff19168380011785556136c0565b828001600101855582156136c0579182015b828111156136bf5782518255916020019190600101906136a4565b5b5090506136cd91906136d1565b5090565b5b808211156136ea5760008160009055506001016136d2565b5090565b6000604051905090565b600080fd5b600080fd5b60007fffffffff0000000000000000000000000000000000000000000000000000000082169050919050565b61373781613702565b811461374257600080fd5b50565b6000813590506137548161372e565b92915050565b6000602082840312156137705761376f6136f8565b5b600061377e84828501613745565b91505092915050565b60008115159050919050565b61379c81613787565b82525050565b60006020820190506137b76000830184613793565b92915050565b600081519050919050565b600082825260208201905092915050565b6000819050602082019050919050565b6000819050919050565b6137fc816137e9565b82525050565b600061380e83836137f3565b60208301905092915050565b6000602082019050919050565b6000613832826137bd565b61383c81856137c8565b9350613847836137d9565b8060005b8381101561387857815161385f8882613802565b975061386a8361381a565b92505060018101905061384b565b5085935050505092915050565b600081519050919050565b600082825260208201905092915050565b6000819050602082019050919050565b600073ffffffffffffffffffffffffffffffffffffffff82169050919050565b60006138dc826138b1565b9050919050565b6138ec816138d1565b82525050565b60006138fe83836138e3565b60208301905092915050565b6000602082019050919050565b600061392282613885565b61392c8185613890565b9350613937836138a1565b8060005b8381101561396857815161394f88826138f2565b975061395a8361390a565b92505060018101905061393b565b5085935050505092915050565b6000608082019050818103600083015261398f8187613827565b905081810360208301526139a38186613917565b905081810360408301526139b78185613917565b905081810360608301526139cb8184613827565b905095945050505050565b600081519050919050565b600082825260208201905092915050565b60005b83811015613a105780820151818401526020810190506139f5565b83811115613a1f576000848401525b50505050565b6000601f19601f8301169050919050565b6000613a41826139d6565b613a4b81856139e1565b9350613a5b8185602086016139f2565b613a6481613a25565b840191505092915050565b60006020820190508181036000830152613a898184613a36565b905092915050565b613a9a816137e9565b8114613aa557600080fd5b50565b600081359050613ab781613a91565b92915050565b600060208284031215613ad357613ad26136f8565b5b6000613ae184828501613aa8565b91505092915050565b613af3816138d1565b82525050565b6000602082019050613b0e6000830184613aea565b92915050565b613b1d816138d1565b8114613b2857600080fd5b50565b600081359050613b3a81613b14565b92915050565b60008060408385031215613b5757613b566136f8565b5b6000613b6585828601613b2b565b9250506020613b7685828601613aa8565b9150509250929050565b600080600060608486031215613b9957613b986136f8565b5b6000613ba786828701613b2b565b9350506020613bb886828701613b2b565b9250506040613bc986828701613aa8565b9150509250925092565b613bdc816137e9565b82525050565b6000602082019050613bf76000830184613bd3565b92915050565b600080fd5b600080fd5b7f4e487b7100000000000000000000000000000000000000000000000000000000600052604160045260246000fd5b613c3f82613a25565b810181811067ffffffffffffffff82111715613c5e57613c5d613c07565b5b80604052505050565b6000613c716136ee565b9050613c7d8282613c36565b919050565b600067ffffffffffffffff821115613c9d57613c9c613c07565b5b613ca682613a25565b9050602081019050919050565b82818337600083830152505050565b6000613cd5613cd084613c82565b613c67565b905082815260208101848484011115613cf157613cf0613c02565b5b613cfc848285613cb3565b509392505050565b600082601f830112613d1957613d18613bfd565b5b8135613d29848260208601613cc2565b91505092915050565b60008060008060008060c08789031215613d4f57613d4e6136f8565b5b600087013567ffffffffffffffff811115613d6d57613d6c6136fd565b5b613d7989828a01613d04565b965050602087013567ffffffffffffffff811115613d9a57613d996136fd565b5b613da689828a01613d04565b955050604087013567ffffffffffffffff811115613dc757613dc66136fd565b5b613dd389828a01613d04565b945050606087013567ffffffffffffffff811115613df457613df36136fd565b5b613e0089828a01613d04565b9350506080613e1189828a01613aa8565b92505060a087013567ffffffffffffffff811115613e3257613e316136fd565b5b613e3e89828a01613d04565b9150509295509295509295565b60008060408385031215613e6257613e616136f8565b5b6000613e7085828601613aa8565b9250506020613e8185828601613aa8565b9150509250929050565b600060208284031215613ea157613ea06136f8565b5b6000613eaf84828501613b2b565b91505092915050565b60008060408385031215613ecf57613ece6136f8565b5b6000613edd85828601613aa8565b9250506020613eee85828601613b2b565b9150509250929050565b613f0181613787565b8114613f0c57600080fd5b50565b600081359050613f1e81613ef8565b92915050565b60008060408385031215613f3b57613f3a6136f8565b5b6000613f4985828601613b2b565b9250506020613f5a85828601613f0f565b9150509250929050565b600067ffffffffffffffff821115613f7f57613f7e613c07565b5b613f8882613a25565b9050602081019050919050565b6000613fa8613fa384613f64565b613c67565b905082815260208101848484011115613fc457613fc3613c02565b5b613fcf848285613cb3565b509392505050565b600082601f830112613fec57613feb613bfd565b5b8135613ffc848260208601613f95565b91505092915050565b6000806000806080858703121561401f5761401e6136f8565b5b600061402d87828801613b2b565b945050602061403e87828801613b2b565b935050604061404f87828801613aa8565b925050606085013567ffffffffffffffff8111156140705761406f6136fd565b5b61407c87828801613fd7565b91505092959194509250565b6000614093826138b1565b9050919050565b6140a381614088565b82525050565b6000610140820190506140bf600083018d613bd3565b81810360208301526140d1818c613a36565b905081810360408301526140e5818b613a36565b90506140f4606083018a613bd3565b6141016080830189613bd3565b81810360a08301526141138188613a36565b905081810360c08301526141278187613a36565b905061413660e0830186613aea565b61414461010083018561409a565b8181036101208301526141578184613a36565b90509b9a5050505050505050505050565b600060208201905081810360008301526141828184613827565b905092915050565b6000610140820190506141a0600083018d613bd3565b81810360208301526141b2818c613a36565b905081810360408301526141c6818b613a36565b90506141d5606083018a613bd3565b81810360808301526141e78189613a36565b905081810360a08301526141fb8188613a36565b905061420a60c083018761409a565b61421760e083018661409a565b614225610100830185613bd3565b8181036101208301526142388184613a36565b90509b9a5050505050505050505050565b600080604083850312156142605761425f6136f8565b5b600061426e85828601613b2b565b925050602061427f85828601613b2b565b9150509250929050565b7f4e487b7100000000000000000000000000000000000000000000000000000000600052603260045260246000fd5b7f4e487b7100000000000000000000000000000000000000000000000000000000600052602260045260246000fd5b600060028204905060018216806142ff57607f821691505b60208210811415614313576143126142b8565b5b50919050565b7f4e487b7100000000000000000000000000000000000000000000000000000000600052601160045260246000fd5b6000614353826137e9565b91507fffffffffffffffffffffffffffffffffffffffffffffffffffffffffffffffff82141561438657614385614319565b5b600182019050919050565b7f4552433732313a20617070726f76616c20746f2063757272656e74206f776e6560008201527f7200000000000000000000000000000000000000000000000000000000000000602082015250565b60006143ed6021836139e1565b91506143f882614391565b604082019050919050565b6000602082019050818103600083015261441c816143e0565b9050919050565b7f4552433732313a20617070726f76652063616c6c6572206973206e6f7420746f60008201527f6b656e206f776e6572206f7220617070726f76656420666f7220616c6c000000602082015250565b600061447f603d836139e1565b915061448a82614423565b604082019050919050565b600060208201905081810360008301526144ae81614472565b9050919050565b7f4552433732313a2063616c6c6572206973206e6f7420746f6b656e206f776e6560008201527f72206f7220617070726f76656400000000000000000000000000000000000000602082015250565b6000614511602d836139e1565b915061451c826144b5565b604082019050919050565b6000602082019050818103600083015261454081614504565b9050919050565b7f546865207469746c652063616e6e6f7420626520656d70747900000000000000600082015250565b600061457d6019836139e1565b915061458882614547565b602082019050919050565b600060208201905081810360008301526145ac81614570565b9050919050565b7f54686520446174652063616e6e6f7420626520656d7074790000000000000000600082015250565b60006145e96018836139e1565b91506145f4826145b3565b602082019050919050565b60006020820190508181036000830152614618816145dc565b9050919050565b7f546865206465736372697074696f6e2063616e6e6f7420626520656d70747900600082015250565b6000614655601f836139e1565b91506146608261461f565b602082019050919050565b6000602082019050818103600083015261468481614648565b9050919050565b7f5468652070726963652063616e6e6f7420626520656d70747900000000000000600082015250565b60006146c16019836139e1565b91506146cc8261468b565b602082019050919050565b600060208201905081810360008301526146f0816146b4565b9050919050565b7f54686520696d6167652063616e6e6f7420626520656d70747900000000000000600082015250565b600061472d6019836139e1565b9150614738826146f7565b602082019050919050565b6000602082019050818103600083015261475c81614720565b9050919050565b600061476e826137e9565b9150614779836137e9565b92508282101561478c5761478b614319565b5b828203905092915050565b600060e0820190506147ac600083018a613bd3565b81810360208301526147be8189613a36565b905081810360408301526147d28188613a36565b905081810360608301526147e68187613a36565b90506147f56080830186613bd3565b61480260a0830185613aea565b61480f60c0830184613aea565b98975050505050505050565b7f4552433732313a20696e76616c696420746f6b656e2049440000000000000000600082015250565b60006148516018836139e1565b915061485c8261481b565b602082019050919050565b6000602082019050818103600083015261488081614844565b9050919050565b7f5072696365206d75737420626520657175616c20746f206f722067726561746560008201527f72207468616e207a65726f000000000000000000000000000000000000000000602082015250565b60006148e3602b836139e1565b91506148ee82614887565b604082019050919050565b60006020820190508181036000830152614912816148d6565b9050919050565b600060608201905061492e6000830186613bd3565b61493b6020830185613bd3565b6149486040830184613bd3565b949350505050565b7f4552433732313a2061646472657373207a65726f206973206e6f74206120766160008201527f6c6964206f776e65720000000000000000000000000000000000000000000000602082015250565b60006149ac6029836139e1565b91506149b782614950565b604082019050919050565b600060208201905081810360008301526149db8161499f565b9050919050565b600081905092915050565b60006149f8826139d6565b614a0281856149e2565b9350614a128185602086016139f2565b80840191505092915050565b6000614a2a82856149ed565b9150614a3682846149ed565b91508190509392505050565b7f417274206973206e6f7420666f722073616c6500000000000000000000000000600082015250565b6000614a786013836139e1565b9150614a8382614a42565b602082019050919050565b60006020820190508181036000830152614aa781614a6b565b9050919050565b6000614ab9826137e9565b91506000821415614acd57614acc614319565b5b600182039050919050565b6000819050919050565b6000614afd614af8614af3846138b1565b614ad8565b6138b1565b9050919050565b6000614b0f82614ae2565b9050919050565b6000614b2182614b04565b9050919050565b614b3181614b16565b82525050565b600060e082019050614b4c600083018a613bd3565b8181036020830152614b5e8189613a36565b90508181036040830152614b728188613a36565b9050614b816060830187613bd3565b614b8e6080830186613aea565b614b9b60a0830185614b28565b614ba860c0830184613aea565b98975050505050505050565b7f4552433732313a207472616e736665722066726f6d20696e636f72726563742060008201527f6f776e6572000000000000000000000000000000000000000000000000000000602082015250565b6000614c106025836139e1565b9150614c1b82614bb4565b604082019050919050565b60006020820190508181036000830152614c3f81614c03565b9050919050565b7f4552433732313a207472616e7366657220746f20746865207a65726f2061646460008201527f7265737300000000000000000000000000000000000000000000000000000000602082015250565b6000614ca26024836139e1565b9150614cad82614c46565b604082019050919050565b60006020820190508181036000830152614cd181614c95565b9050919050565b7f4552433732313a20617070726f766520746f2063616c6c657200000000000000600082015250565b6000614d0e6019836139e1565b9150614d1982614cd8565b602082019050919050565b60006020820190508181036000830152614d3d81614d01565b9050919050565b7f4552433732313a207472616e7366657220746f206e6f6e20455243373231526560008201527f63656976657220696d706c656d656e7465720000000000000000000000000000602082015250565b6000614da06032836139e1565b9150614dab82614d44565b604082019050919050565b60006020820190508181036000830152614dcf81614d93565b9050919050565b7f4e487b7100000000000000000000000000000000000000000000000000000000600052601260045260246000fd5b600081519050919050565b600082825260208201905092915050565b6000614e2c82614e05565b614e368185614e10565b9350614e468185602086016139f2565b614e4f81613a25565b840191505092915050565b6000608082019050614e6f6000830187613aea565b614e7c6020830186613aea565b614e896040830185613bd3565b8181036060830152614e9b8184614e21565b905095945050505050565b600081519050614eb58161372e565b92915050565b600060208284031215614ed157614ed06136f8565b5b6000614edf84828501614ea6565b91505092915050565b7f4552433732313a206d696e7420746f20746865207a65726f2061646472657373600082015250565b6000614f1e6020836139e1565b9150614f2982614ee8565b602082019050919050565b60006020820190508181036000830152614f4d81614f11565b9050919050565b7f4552433732313a20746f6b656e20616c7265616479206d696e74656400000000600082015250565b6000614f8a601c836139e1565b9150614f9582614f54565b602082019050919050565b60006020820190508181036000830152614fb981614f7d565b905091905056fea26469706673582212206fa50ef0c5d9316ff2bbb08e666715fa646cd9bb4bb302900533c3cf39d39b0564736f6c63430008090033",
  "immutableReferences": {},
  "source": "//SPDX-License-Identifier: Unlicense\r\n\r\npragma solidity ^0.8.7;\r\nimport \"@openzeppelin/contracts/token/ERC721/ERC721.sol\";\r\nimport \"@openzeppelin/contracts/token/ERC1155/ERC1155.sol\";\r\nimport \"@openzeppelin/contracts/access/Ownable.sol\";\r\n\r\ncontract cytoWave721 is ERC721{\r\n\r\n   struct Art {\r\n       uint256 id;\r\n       string title;\r\n       string description;\r\n       uint256 price;\r\n       string date;\r\n       string authorName;\r\n       address payable author;\r\n       address payable owner;  \r\n       uint status;  \r\n       string image;\r\n    }\r\n   struct ArtTxn {\r\n       uint256 id;\r\n       uint256 price;\r\n       address seller;\r\n       address buyer;\r\n       uint txnDate;\r\n       uint status;\r\n    }\r\n\r\n   // gets updated during minting(creation), buying and reselling\r\n   uint256 private pendingArtCount;\r\n   mapping(uint256 => ArtTxn[]) private artTxns;\r\n   uint256 public index;  // uint256 value; is cheaper than uint256 value = 0;.\r\n   Art[] public arts;\r\n\r\n   // log events back to the user interface\r\n   event LogArtSold(uint _tokenId, string _title, string _authorName, uint256 _price,   address _author,  address _current_owner, address _buyer);\r\n\r\n   event LogArtTokenCreate(uint _tokenId, string _title, string _category, string _authorName, uint256 _price, address _author,  address _current_owner);\r\n\r\n   event LogArtResell(uint _tokenId, uint _status, uint256 _price);\r\n\r\n\r\n   constructor (string memory name, string memory symbol) ERC721(name, symbol){}\r\n\r\n   /* Create or minting the token */\r\n   function createToken(string memory _title, string memory _description,string memory _date, string memory _authorName, \r\n   uint256 _price, string memory _image) public {\r\n\r\n       require(bytes(_title).length > 0, 'The title cannot be empty');\r\n       require(bytes(_date).length > 0, 'The Date cannot be empty');\r\n       require(bytes(_description).length > 0, 'The description cannot be empty');\r\n       require(_price > 0, 'The price cannot be empty');\r\n       require(bytes(_image).length > 0, 'The image cannot be empty');\r\n\r\n       Art memory _art = Art({\r\n           id: index,\r\n           title: _title,\r\n           description: _description,\r\n           price: _price,\r\n           date: _date,\r\n           authorName: _authorName,\r\n           author: payable(msg.sender),\r\n           owner: payable(msg.sender),\r\n           status: 1,\r\n           image: _image\r\n       });\r\n\r\n       arts.push(_art);   // push to the array\r\n\r\n        // array length -1 to get the token ID = 0, 1,2 ...\r\n      uint256 tokenId = arts.length -1 ;\r\n       _safeMint(msg.sender, tokenId);\r\n       emit LogArtTokenCreate(tokenId,_title,  _date, _authorName,_price, msg.sender, msg.sender);\r\n\r\n       index++;\r\n       pendingArtCount++;\r\n    }\r\n\r\n    function buyArt(uint256 _tokenId) payable public {\r\n       (uint256 _id, string memory _title, ,uint256 _price, uint _status, , string memory _authorName, address _author,address payable _current_owner,) =  findArt(_tokenId);\r\n       require(_current_owner != address(0));\r\n       require(msg.sender != address(0));\r\n       require(msg.sender != _current_owner);\r\n       require(_status == 1, \"Art is not for sale\");\r\n       require(msg.value >= _price);\r\n       require(arts[_tokenId].owner != address(0));\r\n       // transfer ownership of the art\r\n       _safeTransfer(_current_owner, msg.sender, _tokenId, \"\");\r\n       //return extra payment\r\n       if(msg.value > _price) payable(msg.sender).transfer(msg.value - _price);\r\n       //make a payment to the current owner\r\n       _current_owner.transfer(_price);\r\n\r\n       arts[_tokenId].owner = payable(msg.sender);\r\n       arts[_tokenId].status = 0;\r\n  \r\n       ArtTxn memory _artTxn = ArtTxn({\r\n           id: _id,\r\n           price: _price,\r\n           seller: _current_owner,\r\n           buyer: msg.sender,\r\n           txnDate: block.timestamp,\r\n           status: _status\r\n       });\r\n\r\n       artTxns[_id].push(_artTxn);\r\n       pendingArtCount--;\r\n       emit LogArtSold(_tokenId,_title,  _authorName,_price, _author,_current_owner,msg.sender);\r\n   }\r\n\r\n    /* Pass the token ID and get the art Information */\r\n   function findArt(uint256 _tokenId) public view returns (\r\n       uint256, string memory, string memory, uint256, uint status,  string memory, string memory, address, address payable, string memory) \r\n    {\r\n     Art memory art = arts[_tokenId];\r\n     return (art.id, art.title, art.description,art.price, art.status, art.date, art.authorName,art.author, art.owner,art.image); \r\n    }\r\n\r\n    function resellArt(uint256 _tokenId, uint256 _price) public {\r\n        require(_price >= 0, \"Price must be equal to or greater than zero\");\r\n        // require(ownerOf(_tokenId) == msg.sender, \"Only the owner can resell the NFT\");\r\n        require(msg.sender != address(0));\r\n        require(isOwnerOf(_tokenId,msg.sender));\r\n        \r\n        if (_price == 0) {\r\n            // Remove the NFT from sale by setting the status to 0\r\n            arts[_tokenId].status = 0;\r\n        } else {\r\n            // List the NFT for sale by setting the status to 1 and updating the price\r\n            arts[_tokenId].status = 1;\r\n            arts[_tokenId].price = _price;\r\n            pendingArtCount++;\r\n        }\r\n\r\n        emit LogArtResell(_tokenId, arts[_tokenId].status, _price);\r\n    }\r\n\r\n\r\n   /* returns all the pending arts (status =1) back to the user */\r\n   function findAllPendingArt() public view  returns (uint256[] memory, address[] memory, address[] memory,  uint[] memory) {\r\n     if (pendingArtCount == 0) {\r\n          return (new uint256[](0),new address[](0), new address[](0), new uint[](0)); \r\n       }\r\n  \r\n       uint256 arrLength = arts.length;\r\n       uint256[] memory ids = new uint256[](pendingArtCount);\r\n       address[] memory authors = new address[](pendingArtCount);\r\n       address[] memory owners= new address[](pendingArtCount);\r\n       uint[] memory status = new uint[](pendingArtCount);\r\n       uint256 idx = 0;\r\n       for (uint i = 0; i < arrLength; ++i) {\r\n           Art memory art = arts[i];\r\n           if(art.status==1) {\r\n                   ids[idx] = art.id;\r\n                   authors[idx] = art.author;\r\n                   owners[idx] = art.owner;\r\n                   status[idx] = art.status;\r\n                   idx++;\r\n               }\r\n           }\r\n\r\n       return (ids,authors, owners, status); \r\n   }\r\n\r\n   function findMyArts()  public view returns (uint256[] memory _myArts) {\r\n       require(msg.sender != address(0));\r\n       uint256 numOftokens = balanceOf(msg.sender);\r\n       if (numOftokens == 0) {\r\n           return new uint256[](0);\r\n       }\r\n       else{\r\n           uint256[] memory myArts = new uint256[](numOftokens);\r\n           uint256 idx = 0;\r\n           uint256 arrLength = arts.length;\r\n           for (uint256 i = 0; i < arrLength; i++) {\r\n               if (ownerOf(i) == msg.sender) {\r\n                   myArts[idx] = i;\r\n                   idx++;\r\n               }\r\n           }\r\n           return myArts;\r\n       }\r\n   }\r\n\r\n   function isOwnerOf(uint256 tokenId, address account) public view returns (bool) {\r\n       address owner = ownerOf(tokenId);\r\n       require(owner != address(0));\r\n       return owner == account;\r\n   }\r\n\r\n\r\n   function get_symbol() external view returns (string memory)\r\n   {\r\n       return symbol();\r\n   }\r\n\r\n   function get_name() external view returns (string memory)\r\n   {\r\n       return name();\r\n   }\r\n    // get number of art in the art array\r\n    function getArtCount() public view returns (uint256) {\r\n        return arts.length - 1;\r\n    }\r\n\r\n\r\n}\r\n\r\ncontract cytoWave1155 is ERC1155, Ownable {\r\n    uint256 private _currentTokenId = 0;\r\n\r\n    struct Art {\r\n        uint256 id;\r\n        string title;\r\n        string description;\r\n        uint256 price;\r\n        string date;\r\n        string authorName;\r\n        address payable author;\r\n        string image;\r\n    }\r\n\r\n    mapping(uint256 => Art) private artData;\r\n    mapping(uint256 => address) public creators;\r\n    Art[] public arts;\r\n   // log events back to the user interface\r\n    event LogArtTokenCreate(uint256 tokenId, string title, string date, string authorName, uint256 price, address author);\r\n    event ArtPurchased(uint256 tokenId, string title, string authorName, uint256 price, address author, address newOwner);\r\n    event LogArtResell(uint256 tokenId, string title, string authorName, uint256 price, address author, address newOwner);\r\n\r\n    constructor(string memory uri) ERC1155(uri) {}\r\n\r\n    function createToken(\r\n        string memory title,\r\n        string memory description,\r\n        uint256 price,\r\n        string memory date,\r\n        string memory authorName,\r\n        string memory image,\r\n        bool isFungible,\r\n        uint256 initialSupply\r\n    ) public onlyOwner returns (uint256) {\r\n        uint256 newTokenId = _currentTokenId++;\r\n        if (isFungible) {\r\n            _mint(msg.sender, newTokenId, initialSupply, \"\");\r\n        } else {\r\n            _mint(msg.sender, newTokenId, 1, \"\");\r\n        }\r\n        creators[newTokenId] = msg.sender;\r\n\r\n        artData[newTokenId] = Art({\r\n            id: newTokenId,\r\n            title: title,\r\n            description: description,\r\n            price: price,\r\n            date: date,\r\n            authorName: authorName,\r\n            author: payable(msg.sender),\r\n            image: image\r\n        });\r\n\r\n\r\n        emit LogArtTokenCreate(newTokenId, title, date, authorName, price, msg.sender);\r\n\r\n        return newTokenId;\r\n    }\r\n\r\n    function buyArt(uint256 tokenId) public payable {\r\n        require(artData[tokenId].author != address(0), \"Art does not exist\");\r\n        require(msg.value >= artData[tokenId].price, \"Insufficient payment\");\r\n        require(balanceOf(creators[tokenId], tokenId) > 0, \"Art is not available for sale\");\r\n\r\n        address seller = creators[tokenId];\r\n        safeTransferFrom(seller, msg.sender, tokenId, 1, \"\");\r\n\r\n        if (msg.value > artData[tokenId].price) {\r\n            payable(msg.sender).transfer(msg.value - artData[tokenId].price);\r\n        }\r\n\r\n        payable(seller).transfer(artData[tokenId].price);\r\n\r\n        emit ArtPurchased(tokenId, artData[tokenId].title, artData[tokenId].authorName, artData[tokenId].price, seller, msg.sender);\r\n    }\r\n\r\n    function findArt(uint256 tokenId) public view returns (\r\n        uint256, string memory, string memory, uint256, string memory, string memory, address, string memory\r\n    ) {\r\n        Art memory art = artData[tokenId];\r\n        return (\r\n            art.id,\r\n            art.title,\r\n            art.description,\r\n            art.price,\r\n            art.date,\r\n            art.authorName,\r\n            art.author,\r\n            art.image\r\n        );\r\n    }\r\n    function getArtCount() public view returns (uint256) {\r\n        return arts.length - 1;\r\n    }\r\n\r\n\r\n    function resellArt(uint256 tokenId, uint256 newPrice) public {\r\n    require(artData[tokenId].author != address(0), \"Art does not exist\");\r\n    require(balanceOf(msg.sender, tokenId) > 0, \"Caller is not the owner of the art\");\r\n    require(newPrice > 0, \"New price must be greater than zero\");\r\n\r\n    // Update the art price\r\n    artData[tokenId].price = newPrice;\r\n\r\n    // Emit the LogArtResell event\r\n    emit LogArtResell(\r\n        tokenId,\r\n        artData[tokenId].title,\r\n        artData[tokenId].authorName,\r\n        newPrice,\r\n        artData[tokenId].author,\r\n        msg.sender\r\n    );\r\n}\r\n\r\n}\r\n\r\n\r\ncontract cytoWave {\r\n    cytoWave721 public art721;\r\n    cytoWave1155 public art1155;\r\n\r\n    constructor(address _art721, address _art1155) {\r\n        art721 = cytoWave721(_art721);\r\n        art1155 = cytoWave1155(_art1155);\r\n    }\r\n\r\n}\r\n",
  "sourcePath": "C:\\Users\\PHB\\cytowave\\contracts\\cytoWave.sol",
  "compiler": {
    "name": "solc",
    "version": "0.8.9+commit.e5eed63a.Emscripten.clang"
  },
  "schemaVersion": "3.4.13",
  "updatedAt": "2023-05-08T23:12:03.774Z",
  "networkType": "ethereum",
  "devdoc": {
    "kind": "dev",
    "methods": {
      "approve(address,uint256)": {
        "details": "See {IERC721-approve}."
      },
      "balanceOf(address)": {
        "details": "See {IERC721-balanceOf}."
      },
      "getApproved(uint256)": {
        "details": "See {IERC721-getApproved}."
      },
      "isApprovedForAll(address,address)": {
        "details": "See {IERC721-isApprovedForAll}."
      },
      "name()": {
        "details": "See {IERC721Metadata-name}."
      },
      "ownerOf(uint256)": {
        "details": "See {IERC721-ownerOf}."
      },
      "safeTransferFrom(address,address,uint256)": {
        "details": "See {IERC721-safeTransferFrom}."
      },
      "safeTransferFrom(address,address,uint256,bytes)": {
        "details": "See {IERC721-safeTransferFrom}."
      },
      "setApprovalForAll(address,bool)": {
        "details": "See {IERC721-setApprovalForAll}."
      },
      "supportsInterface(bytes4)": {
        "details": "See {IERC165-supportsInterface}."
      },
      "symbol()": {
        "details": "See {IERC721Metadata-symbol}."
      },
      "tokenURI(uint256)": {
        "details": "See {IERC721Metadata-tokenURI}."
      },
      "transferFrom(address,address,uint256)": {
        "details": "See {IERC721-transferFrom}."
      }
    },
    "version": 1
  },
  "userdoc": {
    "kind": "user",
    "methods": {},
    "version": 1
  }
}