{
  "contractName": "cytoWave",
  "abi": [
    {
      "inputs": [
        {
          "internalType": "address",
          "name": "_art721",
          "type": "address"
        },
        {
          "internalType": "address",
          "name": "_art1155",
          "type": "address"
        }
      ],
      "stateMutability": "nonpayable",
      "type": "constructor"
    },
    {
      "inputs": [],
      "name": "art1155",
      "outputs": [
        {
          "internalType": "contract cytoWave1155",
          "name": "",
          "type": "address"
        }
      ],
      "stateMutability": "view",
      "type": "function",
      "constant": true
    },
    {
      "inputs": [],
      "name": "art721",
      "outputs": [
        {
          "internalType": "contract cytoWave721",
          "name": "",
          "type": "address"
        }
      ],
      "stateMutability": "view",
      "type": "function",
      "constant": true
    }
  ],
  "bytecode": "0x608060405234801561001057600080fd5b506040516103393803806103398339818101604052810190610032919061011d565b816000806101000a81548173ffffffffffffffffffffffffffffffffffffffff021916908373ffffffffffffffffffffffffffffffffffffffff16021790555080600160006101000a81548173ffffffffffffffffffffffffffffffffffffffff021916908373ffffffffffffffffffffffffffffffffffffffff160217905550505061015d565b600080fd5b600073ffffffffffffffffffffffffffffffffffffffff82169050919050565b60006100ea826100bf565b9050919050565b6100fa816100df565b811461010557600080fd5b50565b600081519050610117816100f1565b92915050565b60008060408385031215610134576101336100ba565b5b600061014285828601610108565b925050602061015385828601610108565b9150509250929050565b6101cd8061016c6000396000f3fe608060405234801561001057600080fd5b50600436106100365760003560e01c80630dbb51d51461003b5780635e4eca4114610059575b600080fd5b610043610077565b6040516100509190610140565b60405180910390f35b61006161009b565b60405161006e919061017c565b60405180910390f35b60008054906101000a900473ffffffffffffffffffffffffffffffffffffffff1681565b600160009054906101000a900473ffffffffffffffffffffffffffffffffffffffff1681565b600073ffffffffffffffffffffffffffffffffffffffff82169050919050565b6000819050919050565b60006101066101016100fc846100c1565b6100e1565b6100c1565b9050919050565b6000610118826100eb565b9050919050565b600061012a8261010d565b9050919050565b61013a8161011f565b82525050565b60006020820190506101556000830184610131565b92915050565b60006101668261010d565b9050919050565b6101768161015b565b82525050565b6000602082019050610191600083018461016d565b9291505056fea26469706673582212204d3287b1931d68c967b8dd51d7500bc5bf08f7986d1b18164f22af413a63521d64736f6c63430008090033",
  "immutableReferences": {},
  "source": "//SPDX-License-Identifier: Unlicense\r\n\r\npragma solidity ^0.8.7;\r\nimport \"@openzeppelin/contracts/token/ERC721/ERC721.sol\";\r\nimport \"@openzeppelin/contracts/token/ERC1155/ERC1155.sol\";\r\nimport \"@openzeppelin/contracts/access/Ownable.sol\";\r\n\r\ncontract cytoWave721 is ERC721{\r\n\r\n   struct Art {\r\n       uint256 id;\r\n       string title;\r\n       string description;\r\n       uint256 price;\r\n       string date;\r\n       string authorName;\r\n       address payable author;\r\n       address payable owner;  \r\n       uint status;  \r\n       string image;\r\n    }\r\n   struct ArtTxn {\r\n       uint256 id;\r\n       uint256 price;\r\n       address seller;\r\n       address buyer;\r\n       uint txnDate;\r\n       uint status;\r\n    }\r\n\r\n   // gets updated during minting(creation), buying and reselling\r\n   uint256 private pendingArtCount;\r\n   mapping(uint256 => ArtTxn[]) private artTxns;\r\n   uint256 public index;  // uint256 value; is cheaper than uint256 value = 0;.\r\n   Art[] public arts;\r\n\r\n   // log events back to the user interface\r\n   event LogArtSold(uint _tokenId, string _title, string _authorName, uint256 _price,   address _author,  address _current_owner, address _buyer);\r\n\r\n   event LogArtTokenCreate(uint _tokenId, string _title, string _category, string _authorName, uint256 _price, address _author,  address _current_owner);\r\n\r\n   event LogArtResell(uint _tokenId, uint _status, uint256 _price);\r\n\r\n\r\n   constructor (string memory name, string memory symbol) ERC721(name, symbol){}\r\n\r\n   /* Create or minting the token */\r\n   function createToken(string memory _title, string memory _description,string memory _date, string memory _authorName, \r\n   uint256 _price, string memory _image) public {\r\n\r\n       require(bytes(_title).length > 0, 'The title cannot be empty');\r\n       require(bytes(_date).length > 0, 'The Date cannot be empty');\r\n       require(bytes(_description).length > 0, 'The description cannot be empty');\r\n       require(_price > 0, 'The price cannot be empty');\r\n       require(bytes(_image).length > 0, 'The image cannot be empty');\r\n\r\n       Art memory _art = Art({\r\n           id: index,\r\n           title: _title,\r\n           description: _description,\r\n           price: _price,\r\n           date: _date,\r\n           authorName: _authorName,\r\n           author: payable(msg.sender),\r\n           owner: payable(msg.sender),\r\n           status: 1,\r\n           image: _image\r\n       });\r\n\r\n       arts.push(_art);   // push to the array\r\n\r\n        // array length -1 to get the token ID = 0, 1,2 ...\r\n      uint256 tokenId = arts.length -1 ;\r\n       _safeMint(msg.sender, tokenId);\r\n       emit LogArtTokenCreate(tokenId,_title,  _date, _authorName,_price, msg.sender, msg.sender);\r\n\r\n       index++;\r\n       pendingArtCount++;\r\n    }\r\n\r\n    function buyArt(uint256 _tokenId) payable public {\r\n       (uint256 _id, string memory _title, ,uint256 _price, uint _status, , string memory _authorName, address _author,address payable _current_owner,) =  findArt(_tokenId);\r\n       require(_current_owner != address(0));\r\n       require(msg.sender != address(0));\r\n       require(msg.sender != _current_owner);\r\n       require(_status == 1, \"Art is not for sale\");\r\n       require(msg.value >= _price);\r\n       require(arts[_tokenId].owner != address(0));\r\n       // transfer ownership of the art\r\n       _safeTransfer(_current_owner, msg.sender, _tokenId, \"\");\r\n       //return extra payment\r\n       if(msg.value > _price) payable(msg.sender).transfer(msg.value - _price);\r\n       //make a payment to the current owner\r\n       _current_owner.transfer(_price);\r\n\r\n       arts[_tokenId].owner = payable(msg.sender);\r\n       arts[_tokenId].status = 0;\r\n  \r\n       ArtTxn memory _artTxn = ArtTxn({\r\n           id: _id,\r\n           price: _price,\r\n           seller: _current_owner,\r\n           buyer: msg.sender,\r\n           txnDate: block.timestamp,\r\n           status: _status\r\n       });\r\n\r\n       artTxns[_id].push(_artTxn);\r\n       pendingArtCount--;\r\n       emit LogArtSold(_tokenId,_title,  _authorName,_price, _author,_current_owner,msg.sender);\r\n   }\r\n\r\n    /* Pass the token ID and get the art Information */\r\n   function findArt(uint256 _tokenId) public view returns (\r\n       uint256, string memory, string memory, uint256, uint status,  string memory, string memory, address, address payable, string memory) \r\n    {\r\n     Art memory art = arts[_tokenId];\r\n     return (art.id, art.title, art.description,art.price, art.status, art.date, art.authorName,art.author, art.owner,art.image); \r\n    }\r\n\r\n    function resellArt(uint256 _tokenId, uint256 _price) public {\r\n        require(_price >= 0, \"Price must be equal to or greater than zero\");\r\n        // require(ownerOf(_tokenId) == msg.sender, \"Only the owner can resell the NFT\");\r\n        require(msg.sender != address(0));\r\n        require(isOwnerOf(_tokenId,msg.sender));\r\n        \r\n        if (_price == 0) {\r\n            // Remove the NFT from sale by setting the status to 0\r\n            arts[_tokenId].status = 0;\r\n        } else {\r\n            // List the NFT for sale by setting the status to 1 and updating the price\r\n            arts[_tokenId].status = 1;\r\n            arts[_tokenId].price = _price;\r\n            pendingArtCount++;\r\n        }\r\n\r\n        emit LogArtResell(_tokenId, arts[_tokenId].status, _price);\r\n    }\r\n\r\n\r\n   /* returns all the pending arts (status =1) back to the user */\r\n   function findAllPendingArt() public view  returns (uint256[] memory, address[] memory, address[] memory,  uint[] memory) {\r\n     if (pendingArtCount == 0) {\r\n          return (new uint256[](0),new address[](0), new address[](0), new uint[](0)); \r\n       }\r\n  \r\n       uint256 arrLength = arts.length;\r\n       uint256[] memory ids = new uint256[](pendingArtCount);\r\n       address[] memory authors = new address[](pendingArtCount);\r\n       address[] memory owners= new address[](pendingArtCount);\r\n       uint[] memory status = new uint[](pendingArtCount);\r\n       uint256 idx = 0;\r\n       for (uint i = 0; i < arrLength; ++i) {\r\n           Art memory art = arts[i];\r\n           if(art.status==1) {\r\n                   ids[idx] = art.id;\r\n                   authors[idx] = art.author;\r\n                   owners[idx] = art.owner;\r\n                   status[idx] = art.status;\r\n                   idx++;\r\n               }\r\n           }\r\n\r\n       return (ids,authors, owners, status); \r\n   }\r\n\r\n   function findMyArts()  public view returns (uint256[] memory _myArts) {\r\n       require(msg.sender != address(0));\r\n       uint256 numOftokens = balanceOf(msg.sender);\r\n       if (numOftokens == 0) {\r\n           return new uint256[](0);\r\n       }\r\n       else{\r\n           uint256[] memory myArts = new uint256[](numOftokens);\r\n           uint256 idx = 0;\r\n           uint256 arrLength = arts.length;\r\n           for (uint256 i = 0; i < arrLength; i++) {\r\n               if (ownerOf(i) == msg.sender) {\r\n                   myArts[idx] = i;\r\n                   idx++;\r\n               }\r\n           }\r\n           return myArts;\r\n       }\r\n   }\r\n\r\n   function isOwnerOf(uint256 tokenId, address account) public view returns (bool) {\r\n       address owner = ownerOf(tokenId);\r\n       require(owner != address(0));\r\n       return owner == account;\r\n   }\r\n\r\n\r\n   function get_symbol() external view returns (string memory)\r\n   {\r\n       return symbol();\r\n   }\r\n\r\n   function get_name() external view returns (string memory)\r\n   {\r\n       return name();\r\n   }\r\n    // get number of art in the art array\r\n    function getArtCount() public view returns (uint256) {\r\n        return arts.length - 1;\r\n    }\r\n\r\n\r\n}\r\n\r\ncontract cytoWave1155 is ERC1155, Ownable {\r\n    uint256 private _currentTokenId = 0;\r\n\r\n    struct Art {\r\n        uint256 id;\r\n        string title;\r\n        string description;\r\n        uint256 price;\r\n        string date;\r\n        string authorName;\r\n        address payable author;\r\n        string image;\r\n    }\r\n\r\n    mapping(uint256 => Art) private artData;\r\n    mapping(uint256 => address) public creators;\r\n    Art[] public arts;\r\n   // log events back to the user interface\r\n    event LogArtTokenCreate(uint256 tokenId, string title, string date, string authorName, uint256 price, address author);\r\n    event ArtPurchased(uint256 tokenId, string title, string authorName, uint256 price, address author, address newOwner);\r\n    event LogArtResell(uint256 tokenId, string title, string authorName, uint256 price, address author, address newOwner);\r\n\r\n    constructor(string memory uri) ERC1155(uri) {}\r\n\r\n    function createToken(\r\n        string memory title,\r\n        string memory description,\r\n        uint256 price,\r\n        string memory date,\r\n        string memory authorName,\r\n        string memory image,\r\n        bool isFungible,\r\n        uint256 initialSupply\r\n    ) public onlyOwner returns (uint256) {\r\n        uint256 newTokenId = _currentTokenId++;\r\n        if (isFungible) {\r\n            _mint(msg.sender, newTokenId, initialSupply, \"\");\r\n        } else {\r\n            _mint(msg.sender, newTokenId, 1, \"\");\r\n        }\r\n        creators[newTokenId] = msg.sender;\r\n\r\n        artData[newTokenId] = Art({\r\n            id: newTokenId,\r\n            title: title,\r\n            description: description,\r\n            price: price,\r\n            date: date,\r\n            authorName: authorName,\r\n            author: payable(msg.sender),\r\n            image: image\r\n        });\r\n\r\n\r\n        emit LogArtTokenCreate(newTokenId, title, date, authorName, price, msg.sender);\r\n\r\n        return newTokenId;\r\n    }\r\n\r\n    function buyArt(uint256 tokenId) public payable {\r\n        require(artData[tokenId].author != address(0), \"Art does not exist\");\r\n        require(msg.value >= artData[tokenId].price, \"Insufficient payment\");\r\n        require(balanceOf(creators[tokenId], tokenId) > 0, \"Art is not available for sale\");\r\n\r\n        address seller = creators[tokenId];\r\n        safeTransferFrom(seller, msg.sender, tokenId, 1, \"\");\r\n\r\n        if (msg.value > artData[tokenId].price) {\r\n            payable(msg.sender).transfer(msg.value - artData[tokenId].price);\r\n        }\r\n\r\n        payable(seller).transfer(artData[tokenId].price);\r\n\r\n        emit ArtPurchased(tokenId, artData[tokenId].title, artData[tokenId].authorName, artData[tokenId].price, seller, msg.sender);\r\n    }\r\n\r\n    function findArt(uint256 tokenId) public view returns (\r\n        uint256, string memory, string memory, uint256, string memory, string memory, address, string memory\r\n    ) {\r\n        Art memory art = artData[tokenId];\r\n        return (\r\n            art.id,\r\n            art.title,\r\n            art.description,\r\n            art.price,\r\n            art.date,\r\n            art.authorName,\r\n            art.author,\r\n            art.image\r\n        );\r\n    }\r\n    function getArtCount() public view returns (uint256) {\r\n        return arts.length - 1;\r\n    }\r\n\r\n\r\n    function resellArt(uint256 tokenId, uint256 newPrice) public {\r\n    require(artData[tokenId].author != address(0), \"Art does not exist\");\r\n    require(balanceOf(msg.sender, tokenId) > 0, \"Caller is not the owner of the art\");\r\n    require(newPrice > 0, \"New price must be greater than zero\");\r\n\r\n    // Update the art price\r\n    artData[tokenId].price = newPrice;\r\n\r\n    // Emit the LogArtResell event\r\n    emit LogArtResell(\r\n        tokenId,\r\n        artData[tokenId].title,\r\n        artData[tokenId].authorName,\r\n        newPrice,\r\n        artData[tokenId].author,\r\n        msg.sender\r\n    );\r\n}\r\n\r\n}\r\n\r\n\r\ncontract cytoWave {\r\n    cytoWave721 public art721;\r\n    cytoWave1155 public art1155;\r\n\r\n    constructor(address _art721, address _art1155) {\r\n        art721 = cytoWave721(_art721);\r\n        art1155 = cytoWave1155(_art1155);\r\n    }\r\n\r\n}\r\n",
  "sourcePath": "C:\\Users\\PHB\\cytowave\\contracts\\cytoWave.sol",
  "compiler": {
    "name": "solc",
    "version": "0.8.9+commit.e5eed63a.Emscripten.clang"
  },
  "schemaVersion": "3.4.13",
  "updatedAt": "2023-05-08T23:12:03.749Z",
  "networkType": "ethereum",
  "devdoc": {
    "kind": "dev",
    "methods": {},
    "version": 1
  },
  "userdoc": {
    "kind": "user",
    "methods": {},
    "version": 1
  }
}