{
  "contractName": "cytoWave1155",
  "abi": [
    {
      "inputs": [
        {
          "internalType": "string",
          "name": "uri",
          "type": "string"
        }
      ],
      "stateMutability": "nonpayable",
      "type": "constructor"
    },
    {
      "anonymous": false,
      "inputs": [
        {
          "indexed": true,
          "internalType": "address",
          "name": "account",
          "type": "address"
        },
        {
          "indexed": true,
          "internalType": "address",
          "name": "operator",
          "type": "address"
        },
        {
          "indexed": false,
          "internalType": "bool",
          "name": "approved",
          "type": "bool"
        }
      ],
      "name": "ApprovalForAll",
      "type": "event"
    },
    {
      "anonymous": false,
      "inputs": [
        {
          "indexed": false,
          "internalType": "uint256",
          "name": "tokenId",
          "type": "uint256"
        },
        {
          "indexed": false,
          "internalType": "string",
          "name": "title",
          "type": "string"
        },
        {
          "indexed": false,
          "internalType": "string",
          "name": "authorName",
          "type": "string"
        },
        {
          "indexed": false,
          "internalType": "uint256",
          "name": "price",
          "type": "uint256"
        },
        {
          "indexed": false,
          "internalType": "address",
          "name": "author",
          "type": "address"
        },
        {
          "indexed": false,
          "internalType": "address",
          "name": "newOwner",
          "type": "address"
        }
      ],
      "name": "ArtPurchased",
      "type": "event"
    },
    {
      "anonymous": false,
      "inputs": [
        {
          "indexed": false,
          "internalType": "uint256",
          "name": "tokenId",
          "type": "uint256"
        },
        {
          "indexed": false,
          "internalType": "string",
          "name": "title",
          "type": "string"
        },
        {
          "indexed": false,
          "internalType": "string",
          "name": "authorName",
          "type": "string"
        },
        {
          "indexed": false,
          "internalType": "uint256",
          "name": "price",
          "type": "uint256"
        },
        {
          "indexed": false,
          "internalType": "address",
          "name": "author",
          "type": "address"
        },
        {
          "indexed": false,
          "internalType": "address",
          "name": "newOwner",
          "type": "address"
        }
      ],
      "name": "LogArtResell",
      "type": "event"
    },
    {
      "anonymous": false,
      "inputs": [
        {
          "indexed": false,
          "internalType": "uint256",
          "name": "tokenId",
          "type": "uint256"
        },
        {
          "indexed": false,
          "internalType": "string",
          "name": "title",
          "type": "string"
        },
        {
          "indexed": false,
          "internalType": "string",
          "name": "date",
          "type": "string"
        },
        {
          "indexed": false,
          "internalType": "string",
          "name": "authorName",
          "type": "string"
        },
        {
          "indexed": false,
          "internalType": "uint256",
          "name": "price",
          "type": "uint256"
        },
        {
          "indexed": false,
          "internalType": "address",
          "name": "author",
          "type": "address"
        }
      ],
      "name": "LogArtTokenCreate",
      "type": "event"
    },
    {
      "anonymous": false,
      "inputs": [
        {
          "indexed": true,
          "internalType": "address",
          "name": "previousOwner",
          "type": "address"
        },
        {
          "indexed": true,
          "internalType": "address",
          "name": "newOwner",
          "type": "address"
        }
      ],
      "name": "OwnershipTransferred",
      "type": "event"
    },
    {
      "anonymous": false,
      "inputs": [
        {
          "indexed": true,
          "internalType": "address",
          "name": "operator",
          "type": "address"
        },
        {
          "indexed": true,
          "internalType": "address",
          "name": "from",
          "type": "address"
        },
        {
          "indexed": true,
          "internalType": "address",
          "name": "to",
          "type": "address"
        },
        {
          "indexed": false,
          "internalType": "uint256[]",
          "name": "ids",
          "type": "uint256[]"
        },
        {
          "indexed": false,
          "internalType": "uint256[]",
          "name": "values",
          "type": "uint256[]"
        }
      ],
      "name": "TransferBatch",
      "type": "event"
    },
    {
      "anonymous": false,
      "inputs": [
        {
          "indexed": true,
          "internalType": "address",
          "name": "operator",
          "type": "address"
        },
        {
          "indexed": true,
          "internalType": "address",
          "name": "from",
          "type": "address"
        },
        {
          "indexed": true,
          "internalType": "address",
          "name": "to",
          "type": "address"
        },
        {
          "indexed": false,
          "internalType": "uint256",
          "name": "id",
          "type": "uint256"
        },
        {
          "indexed": false,
          "internalType": "uint256",
          "name": "value",
          "type": "uint256"
        }
      ],
      "name": "TransferSingle",
      "type": "event"
    },
    {
      "anonymous": false,
      "inputs": [
        {
          "indexed": false,
          "internalType": "string",
          "name": "value",
          "type": "string"
        },
        {
          "indexed": true,
          "internalType": "uint256",
          "name": "id",
          "type": "uint256"
        }
      ],
      "name": "URI",
      "type": "event"
    },
    {
      "inputs": [
        {
          "internalType": "uint256",
          "name": "",
          "type": "uint256"
        }
      ],
      "name": "arts",
      "outputs": [
        {
          "internalType": "uint256",
          "name": "id",
          "type": "uint256"
        },
        {
          "internalType": "string",
          "name": "title",
          "type": "string"
        },
        {
          "internalType": "string",
          "name": "description",
          "type": "string"
        },
        {
          "internalType": "uint256",
          "name": "price",
          "type": "uint256"
        },
        {
          "internalType": "string",
          "name": "date",
          "type": "string"
        },
        {
          "internalType": "string",
          "name": "authorName",
          "type": "string"
        },
        {
          "internalType": "address payable",
          "name": "author",
          "type": "address"
        },
        {
          "internalType": "string",
          "name": "image",
          "type": "string"
        }
      ],
      "stateMutability": "view",
      "type": "function",
      "constant": true
    },
    {
      "inputs": [
        {
          "internalType": "address",
          "name": "account",
          "type": "address"
        },
        {
          "internalType": "uint256",
          "name": "id",
          "type": "uint256"
        }
      ],
      "name": "balanceOf",
      "outputs": [
        {
          "internalType": "uint256",
          "name": "",
          "type": "uint256"
        }
      ],
      "stateMutability": "view",
      "type": "function",
      "constant": true
    },
    {
      "inputs": [
        {
          "internalType": "address[]",
          "name": "accounts",
          "type": "address[]"
        },
        {
          "internalType": "uint256[]",
          "name": "ids",
          "type": "uint256[]"
        }
      ],
      "name": "balanceOfBatch",
      "outputs": [
        {
          "internalType": "uint256[]",
          "name": "",
          "type": "uint256[]"
        }
      ],
      "stateMutability": "view",
      "type": "function",
      "constant": true
    },
    {
      "inputs": [
        {
          "internalType": "uint256",
          "name": "",
          "type": "uint256"
        }
      ],
      "name": "creators",
      "outputs": [
        {
          "internalType": "address",
          "name": "",
          "type": "address"
        }
      ],
      "stateMutability": "view",
      "type": "function",
      "constant": true
    },
    {
      "inputs": [
        {
          "internalType": "address",
          "name": "account",
          "type": "address"
        },
        {
          "internalType": "address",
          "name": "operator",
          "type": "address"
        }
      ],
      "name": "isApprovedForAll",
      "outputs": [
        {
          "internalType": "bool",
          "name": "",
          "type": "bool"
        }
      ],
      "stateMutability": "view",
      "type": "function",
      "constant": true
    },
    {
      "inputs": [],
      "name": "owner",
      "outputs": [
        {
          "internalType": "address",
          "name": "",
          "type": "address"
        }
      ],
      "stateMutability": "view",
      "type": "function",
      "constant": true
    },
    {
      "inputs": [],
      "name": "renounceOwnership",
      "outputs": [],
      "stateMutability": "nonpayable",
      "type": "function"
    },
    {
      "inputs": [
        {
          "internalType": "address",
          "name": "from",
          "type": "address"
        },
        {
          "internalType": "address",
          "name": "to",
          "type": "address"
        },
        {
          "internalType": "uint256[]",
          "name": "ids",
          "type": "uint256[]"
        },
        {
          "internalType": "uint256[]",
          "name": "amounts",
          "type": "uint256[]"
        },
        {
          "internalType": "bytes",
          "name": "data",
          "type": "bytes"
        }
      ],
      "name": "safeBatchTransferFrom",
      "outputs": [],
      "stateMutability": "nonpayable",
      "type": "function"
    },
    {
      "inputs": [
        {
          "internalType": "address",
          "name": "from",
          "type": "address"
        },
        {
          "internalType": "address",
          "name": "to",
          "type": "address"
        },
        {
          "internalType": "uint256",
          "name": "id",
          "type": "uint256"
        },
        {
          "internalType": "uint256",
          "name": "amount",
          "type": "uint256"
        },
        {
          "internalType": "bytes",
          "name": "data",
          "type": "bytes"
        }
      ],
      "name": "safeTransferFrom",
      "outputs": [],
      "stateMutability": "nonpayable",
      "type": "function"
    },
    {
      "inputs": [
        {
          "internalType": "address",
          "name": "operator",
          "type": "address"
        },
        {
          "internalType": "bool",
          "name": "approved",
          "type": "bool"
        }
      ],
      "name": "setApprovalForAll",
      "outputs": [],
      "stateMutability": "nonpayable",
      "type": "function"
    },
    {
      "inputs": [
        {
          "internalType": "bytes4",
          "name": "interfaceId",
          "type": "bytes4"
        }
      ],
      "name": "supportsInterface",
      "outputs": [
        {
          "internalType": "bool",
          "name": "",
          "type": "bool"
        }
      ],
      "stateMutability": "view",
      "type": "function",
      "constant": true
    },
    {
      "inputs": [
        {
          "internalType": "address",
          "name": "newOwner",
          "type": "address"
        }
      ],
      "name": "transferOwnership",
      "outputs": [],
      "stateMutability": "nonpayable",
      "type": "function"
    },
    {
      "inputs": [
        {
          "internalType": "uint256",
          "name": "",
          "type": "uint256"
        }
      ],
      "name": "uri",
      "outputs": [
        {
          "internalType": "string",
          "name": "",
          "type": "string"
        }
      ],
      "stateMutability": "view",
      "type": "function",
      "constant": true
    },
    {
      "inputs": [
        {
          "internalType": "string",
          "name": "title",
          "type": "string"
        },
        {
          "internalType": "string",
          "name": "description",
          "type": "string"
        },
        {
          "internalType": "uint256",
          "name": "price",
          "type": "uint256"
        },
        {
          "internalType": "string",
          "name": "date",
          "type": "string"
        },
        {
          "internalType": "string",
          "name": "authorName",
          "type": "string"
        },
        {
          "internalType": "string",
          "name": "image",
          "type": "string"
        },
        {
          "internalType": "bool",
          "name": "isFungible",
          "type": "bool"
        },
        {
          "internalType": "uint256",
          "name": "initialSupply",
          "type": "uint256"
        }
      ],
      "name": "createToken",
      "outputs": [
        {
          "internalType": "uint256",
          "name": "",
          "type": "uint256"
        }
      ],
      "stateMutability": "nonpayable",
      "type": "function"
    },
    {
      "inputs": [
        {
          "internalType": "uint256",
          "name": "tokenId",
          "type": "uint256"
        }
      ],
      "name": "buyArt",
      "outputs": [],
      "stateMutability": "payable",
      "type": "function",
      "payable": true
    },
    {
      "inputs": [
        {
          "internalType": "uint256",
          "name": "tokenId",
          "type": "uint256"
        }
      ],
      "name": "findArt",
      "outputs": [
        {
          "internalType": "uint256",
          "name": "",
          "type": "uint256"
        },
        {
          "internalType": "string",
          "name": "",
          "type": "string"
        },
        {
          "internalType": "string",
          "name": "",
          "type": "string"
        },
        {
          "internalType": "uint256",
          "name": "",
          "type": "uint256"
        },
        {
          "internalType": "string",
          "name": "",
          "type": "string"
        },
        {
          "internalType": "string",
          "name": "",
          "type": "string"
        },
        {
          "internalType": "address",
          "name": "",
          "type": "address"
        },
        {
          "internalType": "string",
          "name": "",
          "type": "string"
        }
      ],
      "stateMutability": "view",
      "type": "function",
      "constant": true
    },
    {
      "inputs": [],
      "name": "getArtCount",
      "outputs": [
        {
          "internalType": "uint256",
          "name": "",
          "type": "uint256"
        }
      ],
      "stateMutability": "view",
      "type": "function",
      "constant": true
    },
    {
      "inputs": [
        {
          "internalType": "uint256",
          "name": "tokenId",
          "type": "uint256"
        },
        {
          "internalType": "uint256",
          "name": "newPrice",
          "type": "uint256"
        }
      ],
      "name": "resellArt",
      "outputs": [],
      "stateMutability": "nonpayable",
      "type": "function"
    }
  ],
  "bytecode": "0x608060405260006004553480156200001657600080fd5b50604051620049d6380380620049d683398181016040528101906200003c9190620003ad565b806200004e816200007660201b60201c565b506200006f620000636200009260201b60201c565b6200009a60201b60201c565b5062000463565b80600290805190602001906200008e92919062000160565b5050565b600033905090565b6000600360009054906101000a900473ffffffffffffffffffffffffffffffffffffffff16905081600360006101000a81548173ffffffffffffffffffffffffffffffffffffffff021916908373ffffffffffffffffffffffffffffffffffffffff1602179055508173ffffffffffffffffffffffffffffffffffffffff168173ffffffffffffffffffffffffffffffffffffffff167f8be0079c531659141344cd1fd0a4f28419497f9722a3daafe3b4186f6b6457e060405160405180910390a35050565b8280546200016e906200042d565b90600052602060002090601f016020900481019282620001925760008555620001de565b82601f10620001ad57805160ff1916838001178555620001de565b82800160010185558215620001de579182015b82811115620001dd578251825591602001919060010190620001c0565b5b509050620001ed9190620001f1565b5090565b5b808211156200020c576000816000905550600101620001f2565b5090565b6000604051905090565b600080fd5b600080fd5b600080fd5b600080fd5b6000601f19601f8301169050919050565b7f4e487b7100000000000000000000000000000000000000000000000000000000600052604160045260246000fd5b62000279826200022e565b810181811067ffffffffffffffff821117156200029b576200029a6200023f565b5b80604052505050565b6000620002b062000210565b9050620002be82826200026e565b919050565b600067ffffffffffffffff821115620002e157620002e06200023f565b5b620002ec826200022e565b9050602081019050919050565b60005b8381101562000319578082015181840152602081019050620002fc565b8381111562000329576000848401525b50505050565b6000620003466200034084620002c3565b620002a4565b90508281526020810184848401111562000365576200036462000229565b5b62000372848285620002f9565b509392505050565b600082601f83011262000392576200039162000224565b5b8151620003a48482602086016200032f565b91505092915050565b600060208284031215620003c657620003c56200021a565b5b600082015167ffffffffffffffff811115620003e757620003e66200021f565b5b620003f5848285016200037a565b91505092915050565b7f4e487b7100000000000000000000000000000000000000000000000000000000600052602260045260246000fd5b600060028204905060018216806200044657607f821691505b602082108114156200045d576200045c620003fe565b5b50919050565b61456380620004736000396000f3fe6080604052600436106101085760003560e01c8063a22cb46511610095578063e57a104a11610064578063e57a104a146103a7578063e985e9c5146103eb578063f242432a14610428578063f2fde38b14610451578063fc7a900b1461047a57610108565b8063a22cb465146102d2578063be0da33d146102fb578063cd53d08e14610326578063ce971a101461036357610108565b80633a02131f116100dc5780633a02131f146101ed5780634e1273f41461022a57806364262dcc14610267578063715018a6146102905780638da5cb5b146102a757610108565b8062fdd58e1461010d57806301ffc9a71461014a5780630e89341c146101875780632eb2c2d6146101c4575b600080fd5b34801561011957600080fd5b50610134600480360381019061012f91906129a7565b610496565b60405161014191906129f6565b60405180910390f35b34801561015657600080fd5b50610171600480360381019061016c9190612a69565b61055f565b60405161017e9190612ab1565b60405180910390f35b34801561019357600080fd5b506101ae60048036038101906101a99190612acc565b610641565b6040516101bb9190612b92565b60405180910390f35b3480156101d057600080fd5b506101eb60048036038101906101e69190612db1565b6106d5565b005b3480156101f957600080fd5b50610214600480360381019061020f9190612f4d565b610776565b60405161022191906129f6565b60405180910390f35b34801561023657600080fd5b50610251600480360381019061024c9190613152565b6109d3565b60405161025e9190613288565b60405180910390f35b34801561027357600080fd5b5061028e600480360381019061028991906132aa565b610aec565b005b34801561029c57600080fd5b506102a5610ce1565b005b3480156102b357600080fd5b506102bc610cf5565b6040516102c991906132f9565b60405180910390f35b3480156102de57600080fd5b506102f960048036038101906102f49190613314565b610d1f565b005b34801561030757600080fd5b50610310610d35565b60405161031d91906129f6565b60405180910390f35b34801561033257600080fd5b5061034d60048036038101906103489190612acc565b610d4e565b60405161035a91906132f9565b60405180910390f35b34801561036f57600080fd5b5061038a60048036038101906103859190612acc565b610d81565b60405161039e989796959493929190613354565b60405180910390f35b3480156103b357600080fd5b506103ce60048036038101906103c99190612acc565b61113a565b6040516103e2989796959493929190613416565b60405180910390f35b3480156103f757600080fd5b50610412600480360381019061040d91906134b7565b61145a565b60405161041f9190612ab1565b60405180910390f35b34801561043457600080fd5b5061044f600480360381019061044a91906134f7565b6114ee565b005b34801561045d57600080fd5b506104786004803603810190610473919061358e565b61158f565b005b610494600480360381019061048f9190612acc565b611613565b005b60008073ffffffffffffffffffffffffffffffffffffffff168373ffffffffffffffffffffffffffffffffffffffff161415610507576040517f08c379a00000000000000000000000000000000000000000000000000000000081526004016104fe9061362d565b60405180910390fd5b60008083815260200190815260200160002060008473ffffffffffffffffffffffffffffffffffffffff1673ffffffffffffffffffffffffffffffffffffffff16815260200190815260200160002054905092915050565b60007fd9b67a26000000000000000000000000000000000000000000000000000000007bffffffffffffffffffffffffffffffffffffffffffffffffffffffff1916827bffffffffffffffffffffffffffffffffffffffffffffffffffffffff1916148061062a57507f0e89341c000000000000000000000000000000000000000000000000000000007bffffffffffffffffffffffffffffffffffffffffffffffffffffffff1916827bffffffffffffffffffffffffffffffffffffffffffffffffffffffff1916145b8061063a57506106398261194f565b5b9050919050565b6060600280546106509061367c565b80601f016020809104026020016040519081016040528092919081815260200182805461067c9061367c565b80156106c95780601f1061069e576101008083540402835291602001916106c9565b820191906000526020600020905b8154815290600101906020018083116106ac57829003601f168201915b50505050509050919050565b6106dd6119b9565b73ffffffffffffffffffffffffffffffffffffffff168573ffffffffffffffffffffffffffffffffffffffff16148061072357506107228561071d6119b9565b61145a565b5b610762576040517f08c379a000000000000000000000000000000000000000000000000000000000815260040161075990613720565b60405180910390fd5b61076f85858585856119c1565b5050505050565b6000610780611ce3565b6000600460008154809291906107959061376f565b91905055905083156107c1576107bc33828560405180602001604052806000815250611d61565b6107de565b6107dd3382600160405180602001604052806000815250611d61565b5b336006600083815260200190815260200160002060006101000a81548173ffffffffffffffffffffffffffffffffffffffff021916908373ffffffffffffffffffffffffffffffffffffffff1602179055506040518061010001604052808281526020018b81526020018a81526020018981526020018881526020018781526020013373ffffffffffffffffffffffffffffffffffffffff16815260200186815250600560008381526020019081526020016000206000820151816000015560208201518160010190805190602001906108b992919061285c565b5060408201518160020190805190602001906108d692919061285c565b506060820151816003015560808201518160040190805190602001906108fd92919061285c565b5060a082015181600501908051906020019061091a92919061285c565b5060c08201518160060160006101000a81548173ffffffffffffffffffffffffffffffffffffffff021916908373ffffffffffffffffffffffffffffffffffffffff16021790555060e082015181600701908051906020019061097e92919061285c565b509050507fb04af43c73f917301d730daa4072a9a9a88bbaec6528fc1db3e753fb69745cfb818b89898c336040516109bb969594939291906137b8565b60405180910390a18091505098975050505050505050565b60608151835114610a19576040517f08c379a0000000000000000000000000000000000000000000000000000000008152600401610a10906138a0565b60405180910390fd5b6000835167ffffffffffffffff811115610a3657610a35612bb9565b5b604051908082528060200260200182016040528015610a645781602001602082028036833780820191505090505b50905060005b8451811015610ae157610ab1858281518110610a8957610a886138c0565b5b6020026020010151858381518110610aa457610aa36138c0565b5b6020026020010151610496565b828281518110610ac457610ac36138c0565b5b60200260200101818152505080610ada9061376f565b9050610a6a565b508091505092915050565b600073ffffffffffffffffffffffffffffffffffffffff166005600084815260200190815260200160002060060160009054906101000a900473ffffffffffffffffffffffffffffffffffffffff1673ffffffffffffffffffffffffffffffffffffffff161415610b92576040517f08c379a0000000000000000000000000000000000000000000000000000000008152600401610b899061393b565b60405180910390fd5b6000610b9e3384610496565b11610bde576040517f08c379a0000000000000000000000000000000000000000000000000000000008152600401610bd5906139cd565b60405180910390fd5b60008111610c21576040517f08c379a0000000000000000000000000000000000000000000000000000000008152600401610c1890613a5f565b60405180910390fd5b8060056000848152602001908152602001600020600301819055507fd0911830e4dafee4e680d1df6260d7bcfb5327e22a4c59eb4d2fc8a83dc706f5826005600085815260200190815260200160002060010160056000868152602001908152602001600020600501846005600088815260200190815260200160002060060160009054906101000a900473ffffffffffffffffffffffffffffffffffffffff1633604051610cd596959493929190613b73565b60405180910390a15050565b610ce9611ce3565b610cf36000611f12565b565b6000600360009054906101000a900473ffffffffffffffffffffffffffffffffffffffff16905090565b610d31610d2a6119b9565b8383611fd8565b5050565b60006001600780549050610d499190613be2565b905090565b60066020528060005260406000206000915054906101000a900473ffffffffffffffffffffffffffffffffffffffff1681565b60006060806000606080600060606000600560008b81526020019081526020016000206040518061010001604052908160008201548152602001600182018054610dca9061367c565b80601f0160208091040260200160405190810160405280929190818152602001828054610df69061367c565b8015610e435780601f10610e1857610100808354040283529160200191610e43565b820191906000526020600020905b815481529060010190602001808311610e2657829003601f168201915b50505050508152602001600282018054610e5c9061367c565b80601f0160208091040260200160405190810160405280929190818152602001828054610e889061367c565b8015610ed55780601f10610eaa57610100808354040283529160200191610ed5565b820191906000526020600020905b815481529060010190602001808311610eb857829003601f168201915b5050505050815260200160038201548152602001600482018054610ef89061367c565b80601f0160208091040260200160405190810160405280929190818152602001828054610f249061367c565b8015610f715780601f10610f4657610100808354040283529160200191610f71565b820191906000526020600020905b815481529060010190602001808311610f5457829003601f168201915b50505050508152602001600582018054610f8a9061367c565b80601f0160208091040260200160405190810160405280929190818152602001828054610fb69061367c565b80156110035780601f10610fd857610100808354040283529160200191611003565b820191906000526020600020905b815481529060010190602001808311610fe657829003601f168201915b505050505081526020016006820160009054906101000a900473ffffffffffffffffffffffffffffffffffffffff1673ffffffffffffffffffffffffffffffffffffffff1673ffffffffffffffffffffffffffffffffffffffff1681526020016007820180546110729061367c565b80601f016020809104026020016040519081016040528092919081815260200182805461109e9061367c565b80156110eb5780601f106110c0576101008083540402835291602001916110eb565b820191906000526020600020905b8154815290600101906020018083116110ce57829003601f168201915b5050505050815250509050806000015181602001518260400151836060015184608001518560a001518660c001518760e001519850985098509850985098509850985050919395975091939597565b6007818154811061114a57600080fd5b90600052602060002090600802016000915090508060000154908060010180546111739061367c565b80601f016020809104026020016040519081016040528092919081815260200182805461119f9061367c565b80156111ec5780601f106111c1576101008083540402835291602001916111ec565b820191906000526020600020905b8154815290600101906020018083116111cf57829003601f168201915b5050505050908060020180546112019061367c565b80601f016020809104026020016040519081016040528092919081815260200182805461122d9061367c565b801561127a5780601f1061124f5761010080835404028352916020019161127a565b820191906000526020600020905b81548152906001019060200180831161125d57829003601f168201915b5050505050908060030154908060040180546112959061367c565b80601f01602080910402602001604051908101604052809291908181526020018280546112c19061367c565b801561130e5780601f106112e35761010080835404028352916020019161130e565b820191906000526020600020905b8154815290600101906020018083116112f157829003601f168201915b5050505050908060050180546113239061367c565b80601f016020809104026020016040519081016040528092919081815260200182805461134f9061367c565b801561139c5780601f106113715761010080835404028352916020019161139c565b820191906000526020600020905b81548152906001019060200180831161137f57829003601f168201915b5050505050908060060160009054906101000a900473ffffffffffffffffffffffffffffffffffffffff16908060070180546113d79061367c565b80601f01602080910402602001604051908101604052809291908181526020018280546114039061367c565b80156114505780601f1061142557610100808354040283529160200191611450565b820191906000526020600020905b81548152906001019060200180831161143357829003601f168201915b5050505050905088565b6000600160008473ffffffffffffffffffffffffffffffffffffffff1673ffffffffffffffffffffffffffffffffffffffff16815260200190815260200160002060008373ffffffffffffffffffffffffffffffffffffffff1673ffffffffffffffffffffffffffffffffffffffff16815260200190815260200160002060009054906101000a900460ff16905092915050565b6114f66119b9565b73ffffffffffffffffffffffffffffffffffffffff168573ffffffffffffffffffffffffffffffffffffffff16148061153c575061153b856115366119b9565b61145a565b5b61157b576040517f08c379a000000000000000000000000000000000000000000000000000000000815260040161157290613720565b60405180910390fd5b6115888585858585612145565b5050505050565b611597611ce3565b600073ffffffffffffffffffffffffffffffffffffffff168173ffffffffffffffffffffffffffffffffffffffff161415611607576040517f08c379a00000000000000000000000000000000000000000000000000000000081526004016115fe90613c88565b60405180910390fd5b61161081611f12565b50565b600073ffffffffffffffffffffffffffffffffffffffff166005600083815260200190815260200160002060060160009054906101000a900473ffffffffffffffffffffffffffffffffffffffff1673ffffffffffffffffffffffffffffffffffffffff1614156116b9576040517f08c379a00000000000000000000000000000000000000000000000000000000081526004016116b09061393b565b60405180910390fd5b6005600082815260200190815260200160002060030154341015611712576040517f08c379a000000000000000000000000000000000000000000000000000000000815260040161170990613cf4565b60405180910390fd5b60006117516006600084815260200190815260200160002060009054906101000a900473ffffffffffffffffffffffffffffffffffffffff1683610496565b11611791576040517f08c379a000000000000000000000000000000000000000000000000000000000815260040161178890613d60565b60405180910390fd5b60006006600083815260200190815260200160002060009054906101000a900473ffffffffffffffffffffffffffffffffffffffff1690506117e68133846001604051806020016040528060008152506114ee565b600560008381526020019081526020016000206003015434111561186d573373ffffffffffffffffffffffffffffffffffffffff166108fc6005600085815260200190815260200160002060030154346118409190613be2565b9081150290604051600060405180830381858888f1935050505015801561186b573d6000803e3d6000fd5b505b8073ffffffffffffffffffffffffffffffffffffffff166108fc60056000858152602001908152602001600020600301549081150290604051600060405180830381858888f193505050501580156118c9573d6000803e3d6000fd5b507f58083b7e0723f08b3677eaeb5c1892dd497ab59433e22a1039ffd9412d0711d48260056000858152602001908152602001600020600101600560008681526020019081526020016000206005016005600087815260200190815260200160002060030154853360405161194396959493929190613d80565b60405180910390a15050565b60007f01ffc9a7000000000000000000000000000000000000000000000000000000007bffffffffffffffffffffffffffffffffffffffffffffffffffffffff1916827bffffffffffffffffffffffffffffffffffffffffffffffffffffffff1916149050919050565b600033905090565b8151835114611a05576040517f08c379a00000000000000000000000000000000000000000000000000000000081526004016119fc90613e61565b60405180910390fd5b600073ffffffffffffffffffffffffffffffffffffffff168473ffffffffffffffffffffffffffffffffffffffff161415611a75576040517f08c379a0000000000000000000000000000000000000000000000000000000008152600401611a6c90613ef3565b60405180910390fd5b6000611a7f6119b9565b9050611a8f8187878787876123e1565b60005b8451811015611c40576000858281518110611ab057611aaf6138c0565b5b602002602001015190506000858381518110611acf57611ace6138c0565b5b60200260200101519050600080600084815260200190815260200160002060008b73ffffffffffffffffffffffffffffffffffffffff1673ffffffffffffffffffffffffffffffffffffffff16815260200190815260200160002054905081811015611b70576040517f08c379a0000000000000000000000000000000000000000000000000000000008152600401611b6790613f85565b60405180910390fd5b81810360008085815260200190815260200160002060008c73ffffffffffffffffffffffffffffffffffffffff1673ffffffffffffffffffffffffffffffffffffffff168152602001908152602001600020819055508160008085815260200190815260200160002060008b73ffffffffffffffffffffffffffffffffffffffff1673ffffffffffffffffffffffffffffffffffffffff1681526020019081526020016000206000828254611c259190613fa5565b9250508190555050505080611c399061376f565b9050611a92565b508473ffffffffffffffffffffffffffffffffffffffff168673ffffffffffffffffffffffffffffffffffffffff168273ffffffffffffffffffffffffffffffffffffffff167f4a39dc06d4c0dbc64b70af90fd698a233a518aa5d07e595d983b8c0526c8f7fb8787604051611cb7929190613ffb565b60405180910390a4611ccd8187878787876123e9565b611cdb8187878787876123f1565b505050505050565b611ceb6119b9565b73ffffffffffffffffffffffffffffffffffffffff16611d09610cf5565b73ffffffffffffffffffffffffffffffffffffffff1614611d5f576040517f08c379a0000000000000000000000000000000000000000000000000000000008152600401611d569061407e565b60405180910390fd5b565b600073ffffffffffffffffffffffffffffffffffffffff168473ffffffffffffffffffffffffffffffffffffffff161415611dd1576040517f08c379a0000000000000000000000000000000000000000000000000000000008152600401611dc890614110565b60405180910390fd5b6000611ddb6119b9565b90506000611de8856125d8565b90506000611df5856125d8565b9050611e06836000898585896123e1565b8460008088815260200190815260200160002060008973ffffffffffffffffffffffffffffffffffffffff1673ffffffffffffffffffffffffffffffffffffffff1681526020019081526020016000206000828254611e659190613fa5565b925050819055508673ffffffffffffffffffffffffffffffffffffffff16600073ffffffffffffffffffffffffffffffffffffffff168473ffffffffffffffffffffffffffffffffffffffff167fc3d58168c5ae7397731d063d5bbf3d657854427343f4c083240f7aacaa2d0f628989604051611ee3929190614130565b60405180910390a4611efa836000898585896123e9565b611f0983600089898989612652565b50505050505050565b6000600360009054906101000a900473ffffffffffffffffffffffffffffffffffffffff16905081600360006101000a81548173ffffffffffffffffffffffffffffffffffffffff021916908373ffffffffffffffffffffffffffffffffffffffff1602179055508173ffffffffffffffffffffffffffffffffffffffff168173ffffffffffffffffffffffffffffffffffffffff167f8be0079c531659141344cd1fd0a4f28419497f9722a3daafe3b4186f6b6457e060405160405180910390a35050565b8173ffffffffffffffffffffffffffffffffffffffff168373ffffffffffffffffffffffffffffffffffffffff161415612047576040517f08c379a000000000000000000000000000000000000000000000000000000000815260040161203e906141cb565b60405180910390fd5b80600160008573ffffffffffffffffffffffffffffffffffffffff1673ffffffffffffffffffffffffffffffffffffffff16815260200190815260200160002060008473ffffffffffffffffffffffffffffffffffffffff1673ffffffffffffffffffffffffffffffffffffffff16815260200190815260200160002060006101000a81548160ff0219169083151502179055508173ffffffffffffffffffffffffffffffffffffffff168373ffffffffffffffffffffffffffffffffffffffff167f17307eab39ab6107e8899845ad3d59bd9653f200f220920489ca2b5937696c31836040516121389190612ab1565b60405180910390a3505050565b600073ffffffffffffffffffffffffffffffffffffffff168473ffffffffffffffffffffffffffffffffffffffff1614156121b5576040517f08c379a00000000000000000000000000000000000000000000000000000000081526004016121ac90613ef3565b60405180910390fd5b60006121bf6119b9565b905060006121cc856125d8565b905060006121d9856125d8565b90506121e98389898585896123e1565b600080600088815260200190815260200160002060008a73ffffffffffffffffffffffffffffffffffffffff1673ffffffffffffffffffffffffffffffffffffffff16815260200190815260200160002054905085811015612280576040517f08c379a000000000000000000000000000000000000000000000000000000000815260040161227790613f85565b60405180910390fd5b85810360008089815260200190815260200160002060008b73ffffffffffffffffffffffffffffffffffffffff1673ffffffffffffffffffffffffffffffffffffffff168152602001908152602001600020819055508560008089815260200190815260200160002060008a73ffffffffffffffffffffffffffffffffffffffff1673ffffffffffffffffffffffffffffffffffffffff16815260200190815260200160002060008282546123359190613fa5565b925050819055508773ffffffffffffffffffffffffffffffffffffffff168973ffffffffffffffffffffffffffffffffffffffff168573ffffffffffffffffffffffffffffffffffffffff167fc3d58168c5ae7397731d063d5bbf3d657854427343f4c083240f7aacaa2d0f628a8a6040516123b2929190614130565b60405180910390a46123c8848a8a86868a6123e9565b6123d6848a8a8a8a8a612652565b505050505050505050565b505050505050565b505050505050565b6124108473ffffffffffffffffffffffffffffffffffffffff16612839565b156125d0578373ffffffffffffffffffffffffffffffffffffffff1663bc197c8187878686866040518663ffffffff1660e01b8152600401612456959493929190614240565b602060405180830381600087803b15801561247057600080fd5b505af19250505080156124a157506040513d601f19601f8201168201806040525081019061249e91906142bd565b60015b612547576124ad6142f7565b806308c379a0141561250a57506124c2614319565b806124cd575061250c565b806040517f08c379a00000000000000000000000000000000000000000000000000000000081526004016125019190612b92565b60405180910390fd5b505b6040517f08c379a000000000000000000000000000000000000000000000000000000000815260040161253e90614421565b60405180910390fd5b63bc197c8160e01b7bffffffffffffffffffffffffffffffffffffffffffffffffffffffff1916817bffffffffffffffffffffffffffffffffffffffffffffffffffffffff1916146125ce576040517f08c379a00000000000000000000000000000000000000000000000000000000081526004016125c5906144b3565b60405180910390fd5b505b505050505050565b60606000600167ffffffffffffffff8111156125f7576125f6612bb9565b5b6040519080825280602002602001820160405280156126255781602001602082028036833780820191505090505b509050828160008151811061263d5761263c6138c0565b5b60200260200101818152505080915050919050565b6126718473ffffffffffffffffffffffffffffffffffffffff16612839565b15612831578373ffffffffffffffffffffffffffffffffffffffff1663f23a6e6187878686866040518663ffffffff1660e01b81526004016126b79594939291906144d3565b602060405180830381600087803b1580156126d157600080fd5b505af192505050801561270257506040513d601f19601f820116820180604052508101906126ff91906142bd565b60015b6127a85761270e6142f7565b806308c379a0141561276b5750612723614319565b8061272e575061276d565b806040517f08c379a00000000000000000000000000000000000000000000000000000000081526004016127629190612b92565b60405180910390fd5b505b6040517f08c379a000000000000000000000000000000000000000000000000000000000815260040161279f90614421565b60405180910390fd5b63f23a6e6160e01b7bffffffffffffffffffffffffffffffffffffffffffffffffffffffff1916817bffffffffffffffffffffffffffffffffffffffffffffffffffffffff19161461282f576040517f08c379a0000000000000000000000000000000000000000000000000000000008152600401612826906144b3565b60405180910390fd5b505b505050505050565b6000808273ffffffffffffffffffffffffffffffffffffffff163b119050919050565b8280546128689061367c565b90600052602060002090601f01602090048101928261288a57600085556128d1565b82601f106128a357805160ff19168380011785556128d1565b828001600101855582156128d1579182015b828111156128d05782518255916020019190600101906128b5565b5b5090506128de91906128e2565b5090565b5b808211156128fb5760008160009055506001016128e3565b5090565b6000604051905090565b600080fd5b600080fd5b600073ffffffffffffffffffffffffffffffffffffffff82169050919050565b600061293e82612913565b9050919050565b61294e81612933565b811461295957600080fd5b50565b60008135905061296b81612945565b92915050565b6000819050919050565b61298481612971565b811461298f57600080fd5b50565b6000813590506129a18161297b565b92915050565b600080604083850312156129be576129bd612909565b5b60006129cc8582860161295c565b92505060206129dd85828601612992565b9150509250929050565b6129f081612971565b82525050565b6000602082019050612a0b60008301846129e7565b92915050565b60007fffffffff0000000000000000000000000000000000000000000000000000000082169050919050565b612a4681612a11565b8114612a5157600080fd5b50565b600081359050612a6381612a3d565b92915050565b600060208284031215612a7f57612a7e612909565b5b6000612a8d84828501612a54565b91505092915050565b60008115159050919050565b612aab81612a96565b82525050565b6000602082019050612ac66000830184612aa2565b92915050565b600060208284031215612ae257612ae1612909565b5b6000612af084828501612992565b91505092915050565b600081519050919050565b600082825260208201905092915050565b60005b83811015612b33578082015181840152602081019050612b18565b83811115612b42576000848401525b50505050565b6000601f19601f8301169050919050565b6000612b6482612af9565b612b6e8185612b04565b9350612b7e818560208601612b15565b612b8781612b48565b840191505092915050565b60006020820190508181036000830152612bac8184612b59565b905092915050565b600080fd5b7f4e487b7100000000000000000000000000000000000000000000000000000000600052604160045260246000fd5b612bf182612b48565b810181811067ffffffffffffffff82111715612c1057612c0f612bb9565b5b80604052505050565b6000612c236128ff565b9050612c2f8282612be8565b919050565b600067ffffffffffffffff821115612c4f57612c4e612bb9565b5b602082029050602081019050919050565b600080fd5b6000612c78612c7384612c34565b612c19565b90508083825260208201905060208402830185811115612c9b57612c9a612c60565b5b835b81811015612cc45780612cb08882612992565b845260208401935050602081019050612c9d565b5050509392505050565b600082601f830112612ce357612ce2612bb4565b5b8135612cf3848260208601612c65565b91505092915050565b600080fd5b600067ffffffffffffffff821115612d1c57612d1b612bb9565b5b612d2582612b48565b9050602081019050919050565b82818337600083830152505050565b6000612d54612d4f84612d01565b612c19565b905082815260208101848484011115612d7057612d6f612cfc565b5b612d7b848285612d32565b509392505050565b600082601f830112612d9857612d97612bb4565b5b8135612da8848260208601612d41565b91505092915050565b600080600080600060a08688031215612dcd57612dcc612909565b5b6000612ddb8882890161295c565b9550506020612dec8882890161295c565b945050604086013567ffffffffffffffff811115612e0d57612e0c61290e565b5b612e1988828901612cce565b935050606086013567ffffffffffffffff811115612e3a57612e3961290e565b5b612e4688828901612cce565b925050608086013567ffffffffffffffff811115612e6757612e6661290e565b5b612e7388828901612d83565b9150509295509295909350565b600067ffffffffffffffff821115612e9b57612e9a612bb9565b5b612ea482612b48565b9050602081019050919050565b6000612ec4612ebf84612e80565b612c19565b905082815260208101848484011115612ee057612edf612cfc565b5b612eeb848285612d32565b509392505050565b600082601f830112612f0857612f07612bb4565b5b8135612f18848260208601612eb1565b91505092915050565b612f2a81612a96565b8114612f3557600080fd5b50565b600081359050612f4781612f21565b92915050565b600080600080600080600080610100898b031215612f6e57612f6d612909565b5b600089013567ffffffffffffffff811115612f8c57612f8b61290e565b5b612f988b828c01612ef3565b985050602089013567ffffffffffffffff811115612fb957612fb861290e565b5b612fc58b828c01612ef3565b9750506040612fd68b828c01612992565b965050606089013567ffffffffffffffff811115612ff757612ff661290e565b5b6130038b828c01612ef3565b955050608089013567ffffffffffffffff8111156130245761302361290e565b5b6130308b828c01612ef3565b94505060a089013567ffffffffffffffff8111156130515761305061290e565b5b61305d8b828c01612ef3565b93505060c061306e8b828c01612f38565b92505060e061307f8b828c01612992565b9150509295985092959890939650565b600067ffffffffffffffff8211156130aa576130a9612bb9565b5b602082029050602081019050919050565b60006130ce6130c98461308f565b612c19565b905080838252602082019050602084028301858111156130f1576130f0612c60565b5b835b8181101561311a5780613106888261295c565b8452602084019350506020810190506130f3565b5050509392505050565b600082601f83011261313957613138612bb4565b5b81356131498482602086016130bb565b91505092915050565b6000806040838503121561316957613168612909565b5b600083013567ffffffffffffffff8111156131875761318661290e565b5b61319385828601613124565b925050602083013567ffffffffffffffff8111156131b4576131b361290e565b5b6131c085828601612cce565b9150509250929050565b600081519050919050565b600082825260208201905092915050565b6000819050602082019050919050565b6131ff81612971565b82525050565b600061321183836131f6565b60208301905092915050565b6000602082019050919050565b6000613235826131ca565b61323f81856131d5565b935061324a836131e6565b8060005b8381101561327b5781516132628882613205565b975061326d8361321d565b92505060018101905061324e565b5085935050505092915050565b600060208201905081810360008301526132a2818461322a565b905092915050565b600080604083850312156132c1576132c0612909565b5b60006132cf85828601612992565b92505060206132e085828601612992565b9150509250929050565b6132f381612933565b82525050565b600060208201905061330e60008301846132ea565b92915050565b6000806040838503121561332b5761332a612909565b5b60006133398582860161295c565b925050602061334a85828601612f38565b9150509250929050565b60006101008201905061336a600083018b6129e7565b818103602083015261337c818a612b59565b905081810360408301526133908189612b59565b905061339f60608301886129e7565b81810360808301526133b18187612b59565b905081810360a08301526133c58186612b59565b90506133d460c08301856132ea565b81810360e08301526133e68184612b59565b90509998505050505050505050565b600061340082612913565b9050919050565b613410816133f5565b82525050565b60006101008201905061342c600083018b6129e7565b818103602083015261343e818a612b59565b905081810360408301526134528189612b59565b905061346160608301886129e7565b81810360808301526134738187612b59565b905081810360a08301526134878186612b59565b905061349660c0830185613407565b81810360e08301526134a88184612b59565b90509998505050505050505050565b600080604083850312156134ce576134cd612909565b5b60006134dc8582860161295c565b92505060206134ed8582860161295c565b9150509250929050565b600080600080600060a0868803121561351357613512612909565b5b60006135218882890161295c565b95505060206135328882890161295c565b945050604061354388828901612992565b935050606061355488828901612992565b925050608086013567ffffffffffffffff8111156135755761357461290e565b5b61358188828901612d83565b9150509295509295909350565b6000602082840312156135a4576135a3612909565b5b60006135b28482850161295c565b91505092915050565b7f455243313135353a2061646472657373207a65726f206973206e6f742061207660008201527f616c6964206f776e657200000000000000000000000000000000000000000000602082015250565b6000613617602a83612b04565b9150613622826135bb565b604082019050919050565b600060208201905081810360008301526136468161360a565b9050919050565b7f4e487b7100000000000000000000000000000000000000000000000000000000600052602260045260246000fd5b6000600282049050600182168061369457607f821691505b602082108114156136a8576136a761364d565b5b50919050565b7f455243313135353a2063616c6c6572206973206e6f7420746f6b656e206f776e60008201527f6572206f7220617070726f766564000000000000000000000000000000000000602082015250565b600061370a602e83612b04565b9150613715826136ae565b604082019050919050565b60006020820190508181036000830152613739816136fd565b9050919050565b7f4e487b7100000000000000000000000000000000000000000000000000000000600052601160045260246000fd5b600061377a82612971565b91507fffffffffffffffffffffffffffffffffffffffffffffffffffffffffffffffff8214156137ad576137ac613740565b5b600182019050919050565b600060c0820190506137cd60008301896129e7565b81810360208301526137df8188612b59565b905081810360408301526137f38187612b59565b905081810360608301526138078186612b59565b905061381660808301856129e7565b61382360a08301846132ea565b979650505050505050565b7f455243313135353a206163636f756e747320616e6420696473206c656e67746860008201527f206d69736d617463680000000000000000000000000000000000000000000000602082015250565b600061388a602983612b04565b91506138958261382e565b604082019050919050565b600060208201905081810360008301526138b98161387d565b9050919050565b7f4e487b7100000000000000000000000000000000000000000000000000000000600052603260045260246000fd5b7f41727420646f6573206e6f742065786973740000000000000000000000000000600082015250565b6000613925601283612b04565b9150613930826138ef565b602082019050919050565b6000602082019050818103600083015261395481613918565b9050919050565b7f43616c6c6572206973206e6f7420746865206f776e6572206f6620746865206160008201527f7274000000000000000000000000000000000000000000000000000000000000602082015250565b60006139b7602283612b04565b91506139c28261395b565b604082019050919050565b600060208201905081810360008301526139e6816139aa565b9050919050565b7f4e6577207072696365206d7573742062652067726561746572207468616e207a60008201527f65726f0000000000000000000000000000000000000000000000000000000000602082015250565b6000613a49602383612b04565b9150613a54826139ed565b604082019050919050565b60006020820190508181036000830152613a7881613a3c565b9050919050565b60008190508160005260206000209050919050565b60008154613aa18161367c565b613aab8186612b04565b94506001821660008114613ac65760018114613ad857613b0b565b60ff1983168652602086019350613b0b565b613ae185613a7f565b60005b83811015613b0357815481890152600182019150602081019050613ae4565b808801955050505b50505092915050565b6000819050919050565b6000613b39613b34613b2f84612913565b613b14565b612913565b9050919050565b6000613b4b82613b1e565b9050919050565b6000613b5d82613b40565b9050919050565b613b6d81613b52565b82525050565b600060c082019050613b8860008301896129e7565b8181036020830152613b9a8188613a94565b90508181036040830152613bae8187613a94565b9050613bbd60608301866129e7565b613bca6080830185613b64565b613bd760a08301846132ea565b979650505050505050565b6000613bed82612971565b9150613bf883612971565b925082821015613c0b57613c0a613740565b5b828203905092915050565b7f4f776e61626c653a206e6577206f776e657220697320746865207a65726f206160008201527f6464726573730000000000000000000000000000000000000000000000000000602082015250565b6000613c72602683612b04565b9150613c7d82613c16565b604082019050919050565b60006020820190508181036000830152613ca181613c65565b9050919050565b7f496e73756666696369656e74207061796d656e74000000000000000000000000600082015250565b6000613cde601483612b04565b9150613ce982613ca8565b602082019050919050565b60006020820190508181036000830152613d0d81613cd1565b9050919050565b7f417274206973206e6f7420617661696c61626c6520666f722073616c65000000600082015250565b6000613d4a601d83612b04565b9150613d5582613d14565b602082019050919050565b60006020820190508181036000830152613d7981613d3d565b9050919050565b600060c082019050613d9560008301896129e7565b8181036020830152613da78188613a94565b90508181036040830152613dbb8187613a94565b9050613dca60608301866129e7565b613dd760808301856132ea565b613de460a08301846132ea565b979650505050505050565b7f455243313135353a2069647320616e6420616d6f756e7473206c656e6774682060008201527f6d69736d61746368000000000000000000000000000000000000000000000000602082015250565b6000613e4b602883612b04565b9150613e5682613def565b604082019050919050565b60006020820190508181036000830152613e7a81613e3e565b9050919050565b7f455243313135353a207472616e7366657220746f20746865207a65726f20616460008201527f6472657373000000000000000000000000000000000000000000000000000000602082015250565b6000613edd602583612b04565b9150613ee882613e81565b604082019050919050565b60006020820190508181036000830152613f0c81613ed0565b9050919050565b7f455243313135353a20696e73756666696369656e742062616c616e636520666f60008201527f72207472616e7366657200000000000000000000000000000000000000000000602082015250565b6000613f6f602a83612b04565b9150613f7a82613f13565b604082019050919050565b60006020820190508181036000830152613f9e81613f62565b9050919050565b6000613fb082612971565b9150613fbb83612971565b9250827fffffffffffffffffffffffffffffffffffffffffffffffffffffffffffffffff03821115613ff057613fef613740565b5b828201905092915050565b60006040820190508181036000830152614015818561322a565b90508181036020830152614029818461322a565b90509392505050565b7f4f776e61626c653a2063616c6c6572206973206e6f7420746865206f776e6572600082015250565b6000614068602083612b04565b915061407382614032565b602082019050919050565b600060208201905081810360008301526140978161405b565b9050919050565b7f455243313135353a206d696e7420746f20746865207a65726f2061646472657360008201527f7300000000000000000000000000000000000000000000000000000000000000602082015250565b60006140fa602183612b04565b91506141058261409e565b604082019050919050565b60006020820190508181036000830152614129816140ed565b9050919050565b600060408201905061414560008301856129e7565b61415260208301846129e7565b9392505050565b7f455243313135353a2073657474696e6720617070726f76616c2073746174757360008201527f20666f722073656c660000000000000000000000000000000000000000000000602082015250565b60006141b5602983612b04565b91506141c082614159565b604082019050919050565b600060208201905081810360008301526141e4816141a8565b9050919050565b600081519050919050565b600082825260208201905092915050565b6000614212826141eb565b61421c81856141f6565b935061422c818560208601612b15565b61423581612b48565b840191505092915050565b600060a08201905061425560008301886132ea565b61426260208301876132ea565b8181036040830152614274818661322a565b90508181036060830152614288818561322a565b9050818103608083015261429c8184614207565b90509695505050505050565b6000815190506142b781612a3d565b92915050565b6000602082840312156142d3576142d2612909565b5b60006142e1848285016142a8565b91505092915050565b60008160e01c9050919050565b600060033d11156143165760046000803e6143136000516142ea565b90505b90565b600060443d1015614329576143ac565b6143316128ff565b60043d036004823e80513d602482011167ffffffffffffffff821117156143595750506143ac565b808201805167ffffffffffffffff81111561437757505050506143ac565b80602083010160043d0385018111156143945750505050506143ac565b6143a382602001850186612be8565b82955050505050505b90565b7f455243313135353a207472616e7366657220746f206e6f6e2d4552433131353560008201527f526563656976657220696d706c656d656e746572000000000000000000000000602082015250565b600061440b603483612b04565b9150614416826143af565b604082019050919050565b6000602082019050818103600083015261443a816143fe565b9050919050565b7f455243313135353a204552433131353552656365697665722072656a6563746560008201527f6420746f6b656e73000000000000000000000000000000000000000000000000602082015250565b600061449d602883612b04565b91506144a882614441565b604082019050919050565b600060208201905081810360008301526144cc81614490565b9050919050565b600060a0820190506144e860008301886132ea565b6144f560208301876132ea565b61450260408301866129e7565b61450f60608301856129e7565b81810360808301526145218184614207565b9050969550505050505056fea2646970667358221220f3c1b5acd35f2555c93037d61494d064e204b12411fd8dbbf4cee86cca74b33c64736f6c63430008090033",
  "immutableReferences": {},
  "source": "//SPDX-License-Identifier: Unlicense\r\n\r\npragma solidity ^0.8.7;\r\nimport \"@openzeppelin/contracts/token/ERC721/ERC721.sol\";\r\nimport \"@openzeppelin/contracts/token/ERC1155/ERC1155.sol\";\r\nimport \"@openzeppelin/contracts/access/Ownable.sol\";\r\n\r\ncontract cytoWave721 is ERC721{\r\n\r\n   struct Art {\r\n       uint256 id;\r\n       string title;\r\n       string description;\r\n       uint256 price;\r\n       string date;\r\n       string authorName;\r\n       address payable author;\r\n       address payable owner;  \r\n       uint status;  \r\n       string image;\r\n    }\r\n   struct ArtTxn {\r\n       uint256 id;\r\n       uint256 price;\r\n       address seller;\r\n       address buyer;\r\n       uint txnDate;\r\n       uint status;\r\n    }\r\n\r\n   // gets updated during minting(creation), buying and reselling\r\n   uint256 private pendingArtCount;\r\n   mapping(uint256 => ArtTxn[]) private artTxns;\r\n   uint256 public index;  // uint256 value; is cheaper than uint256 value = 0;.\r\n   Art[] public arts;\r\n\r\n   // log events back to the user interface\r\n   event LogArtSold(uint _tokenId, string _title, string _authorName, uint256 _price,   address _author,  address _current_owner, address _buyer);\r\n\r\n   event LogArtTokenCreate(uint _tokenId, string _title, string _category, string _authorName, uint256 _price, address _author,  address _current_owner);\r\n\r\n   event LogArtResell(uint _tokenId, uint _status, uint256 _price);\r\n\r\n\r\n   constructor (string memory name, string memory symbol) ERC721(name, symbol){}\r\n\r\n   /* Create or minting the token */\r\n   function createToken(string memory _title, string memory _description,string memory _date, string memory _authorName, \r\n   uint256 _price, string memory _image) public {\r\n\r\n       require(bytes(_title).length > 0, 'The title cannot be empty');\r\n       require(bytes(_date).length > 0, 'The Date cannot be empty');\r\n       require(bytes(_description).length > 0, 'The description cannot be empty');\r\n       require(_price > 0, 'The price cannot be empty');\r\n       require(bytes(_image).length > 0, 'The image cannot be empty');\r\n\r\n       Art memory _art = Art({\r\n           id: index,\r\n           title: _title,\r\n           description: _description,\r\n           price: _price,\r\n           date: _date,\r\n           authorName: _authorName,\r\n           author: payable(msg.sender),\r\n           owner: payable(msg.sender),\r\n           status: 1,\r\n           image: _image\r\n       });\r\n\r\n       arts.push(_art);   // push to the array\r\n\r\n        // array length -1 to get the token ID = 0, 1,2 ...\r\n      uint256 tokenId = arts.length -1 ;\r\n       _safeMint(msg.sender, tokenId);\r\n       emit LogArtTokenCreate(tokenId,_title,  _date, _authorName,_price, msg.sender, msg.sender);\r\n\r\n       index++;\r\n       pendingArtCount++;\r\n    }\r\n\r\n    function buyArt(uint256 _tokenId) payable public {\r\n       (uint256 _id, string memory _title, ,uint256 _price, uint _status, , string memory _authorName, address _author,address payable _current_owner,) =  findArt(_tokenId);\r\n       require(_current_owner != address(0));\r\n       require(msg.sender != address(0));\r\n       require(msg.sender != _current_owner);\r\n       require(_status == 1, \"Art is not for sale\");\r\n       require(msg.value >= _price);\r\n       require(arts[_tokenId].owner != address(0));\r\n       // transfer ownership of the art\r\n       _safeTransfer(_current_owner, msg.sender, _tokenId, \"\");\r\n       //return extra payment\r\n       if(msg.value > _price) payable(msg.sender).transfer(msg.value - _price);\r\n       //make a payment to the current owner\r\n       _current_owner.transfer(_price);\r\n\r\n       arts[_tokenId].owner = payable(msg.sender);\r\n       arts[_tokenId].status = 0;\r\n  \r\n       ArtTxn memory _artTxn = ArtTxn({\r\n           id: _id,\r\n           price: _price,\r\n           seller: _current_owner,\r\n           buyer: msg.sender,\r\n           txnDate: block.timestamp,\r\n           status: _status\r\n       });\r\n\r\n       artTxns[_id].push(_artTxn);\r\n       pendingArtCount--;\r\n       emit LogArtSold(_tokenId,_title,  _authorName,_price, _author,_current_owner,msg.sender);\r\n   }\r\n\r\n    /* Pass the token ID and get the art Information */\r\n   function findArt(uint256 _tokenId) public view returns (\r\n       uint256, string memory, string memory, uint256, uint status,  string memory, string memory, address, address payable, string memory) \r\n    {\r\n     Art memory art = arts[_tokenId];\r\n     return (art.id, art.title, art.description,art.price, art.status, art.date, art.authorName,art.author, art.owner,art.image); \r\n    }\r\n\r\n    function resellArt(uint256 _tokenId, uint256 _price) public {\r\n        require(_price >= 0, \"Price must be equal to or greater than zero\");\r\n        // require(ownerOf(_tokenId) == msg.sender, \"Only the owner can resell the NFT\");\r\n        require(msg.sender != address(0));\r\n        require(isOwnerOf(_tokenId,msg.sender));\r\n        \r\n        if (_price == 0) {\r\n            // Remove the NFT from sale by setting the status to 0\r\n            arts[_tokenId].status = 0;\r\n        } else {\r\n            // List the NFT for sale by setting the status to 1 and updating the price\r\n            arts[_tokenId].status = 1;\r\n            arts[_tokenId].price = _price;\r\n            pendingArtCount++;\r\n        }\r\n\r\n        emit LogArtResell(_tokenId, arts[_tokenId].status, _price);\r\n    }\r\n\r\n\r\n   /* returns all the pending arts (status =1) back to the user */\r\n   function findAllPendingArt() public view  returns (uint256[] memory, address[] memory, address[] memory,  uint[] memory) {\r\n     if (pendingArtCount == 0) {\r\n          return (new uint256[](0),new address[](0), new address[](0), new uint[](0)); \r\n       }\r\n  \r\n       uint256 arrLength = arts.length;\r\n       uint256[] memory ids = new uint256[](pendingArtCount);\r\n       address[] memory authors = new address[](pendingArtCount);\r\n       address[] memory owners= new address[](pendingArtCount);\r\n       uint[] memory status = new uint[](pendingArtCount);\r\n       uint256 idx = 0;\r\n       for (uint i = 0; i < arrLength; ++i) {\r\n           Art memory art = arts[i];\r\n           if(art.status==1) {\r\n                   ids[idx] = art.id;\r\n                   authors[idx] = art.author;\r\n                   owners[idx] = art.owner;\r\n                   status[idx] = art.status;\r\n                   idx++;\r\n               }\r\n           }\r\n\r\n       return (ids,authors, owners, status); \r\n   }\r\n\r\n   function findMyArts()  public view returns (uint256[] memory _myArts) {\r\n       require(msg.sender != address(0));\r\n       uint256 numOftokens = balanceOf(msg.sender);\r\n       if (numOftokens == 0) {\r\n           return new uint256[](0);\r\n       }\r\n       else{\r\n           uint256[] memory myArts = new uint256[](numOftokens);\r\n           uint256 idx = 0;\r\n           uint256 arrLength = arts.length;\r\n           for (uint256 i = 0; i < arrLength; i++) {\r\n               if (ownerOf(i) == msg.sender) {\r\n                   myArts[idx] = i;\r\n                   idx++;\r\n               }\r\n           }\r\n           return myArts;\r\n       }\r\n   }\r\n\r\n   function isOwnerOf(uint256 tokenId, address account) public view returns (bool) {\r\n       address owner = ownerOf(tokenId);\r\n       require(owner != address(0));\r\n       return owner == account;\r\n   }\r\n\r\n\r\n   function get_symbol() external view returns (string memory)\r\n   {\r\n       return symbol();\r\n   }\r\n\r\n   function get_name() external view returns (string memory)\r\n   {\r\n       return name();\r\n   }\r\n    // get number of art in the art array\r\n    function getArtCount() public view returns (uint256) {\r\n        return arts.length - 1;\r\n    }\r\n\r\n\r\n}\r\n\r\ncontract cytoWave1155 is ERC1155, Ownable {\r\n    uint256 private _currentTokenId = 0;\r\n\r\n    struct Art {\r\n        uint256 id;\r\n        string title;\r\n        string description;\r\n        uint256 price;\r\n        string date;\r\n        string authorName;\r\n        address payable author;\r\n        string image;\r\n    }\r\n\r\n    mapping(uint256 => Art) private artData;\r\n    mapping(uint256 => address) public creators;\r\n    Art[] public arts;\r\n   // log events back to the user interface\r\n    event LogArtTokenCreate(uint256 tokenId, string title, string date, string authorName, uint256 price, address author);\r\n    event ArtPurchased(uint256 tokenId, string title, string authorName, uint256 price, address author, address newOwner);\r\n    event LogArtResell(uint256 tokenId, string title, string authorName, uint256 price, address author, address newOwner);\r\n\r\n    constructor(string memory uri) ERC1155(uri) {}\r\n\r\n    function createToken(\r\n        string memory title,\r\n        string memory description,\r\n        uint256 price,\r\n        string memory date,\r\n        string memory authorName,\r\n        string memory image,\r\n        bool isFungible,\r\n        uint256 initialSupply\r\n    ) public onlyOwner returns (uint256) {\r\n        uint256 newTokenId = _currentTokenId++;\r\n        if (isFungible) {\r\n            _mint(msg.sender, newTokenId, initialSupply, \"\");\r\n        } else {\r\n            _mint(msg.sender, newTokenId, 1, \"\");\r\n        }\r\n        creators[newTokenId] = msg.sender;\r\n\r\n        artData[newTokenId] = Art({\r\n            id: newTokenId,\r\n            title: title,\r\n            description: description,\r\n            price: price,\r\n            date: date,\r\n            authorName: authorName,\r\n            author: payable(msg.sender),\r\n            image: image\r\n        });\r\n\r\n\r\n        emit LogArtTokenCreate(newTokenId, title, date, authorName, price, msg.sender);\r\n\r\n        return newTokenId;\r\n    }\r\n\r\n    function buyArt(uint256 tokenId) public payable {\r\n        require(artData[tokenId].author != address(0), \"Art does not exist\");\r\n        require(msg.value >= artData[tokenId].price, \"Insufficient payment\");\r\n        require(balanceOf(creators[tokenId], tokenId) > 0, \"Art is not available for sale\");\r\n\r\n        address seller = creators[tokenId];\r\n        safeTransferFrom(seller, msg.sender, tokenId, 1, \"\");\r\n\r\n        if (msg.value > artData[tokenId].price) {\r\n            payable(msg.sender).transfer(msg.value - artData[tokenId].price);\r\n        }\r\n\r\n        payable(seller).transfer(artData[tokenId].price);\r\n\r\n        emit ArtPurchased(tokenId, artData[tokenId].title, artData[tokenId].authorName, artData[tokenId].price, seller, msg.sender);\r\n    }\r\n\r\n    function findArt(uint256 tokenId) public view returns (\r\n        uint256, string memory, string memory, uint256, string memory, string memory, address, string memory\r\n    ) {\r\n        Art memory art = artData[tokenId];\r\n        return (\r\n            art.id,\r\n            art.title,\r\n            art.description,\r\n            art.price,\r\n            art.date,\r\n            art.authorName,\r\n            art.author,\r\n            art.image\r\n        );\r\n    }\r\n    function getArtCount() public view returns (uint256) {\r\n        return arts.length - 1;\r\n    }\r\n\r\n\r\n    function resellArt(uint256 tokenId, uint256 newPrice) public {\r\n    require(artData[tokenId].author != address(0), \"Art does not exist\");\r\n    require(balanceOf(msg.sender, tokenId) > 0, \"Caller is not the owner of the art\");\r\n    require(newPrice > 0, \"New price must be greater than zero\");\r\n\r\n    // Update the art price\r\n    artData[tokenId].price = newPrice;\r\n\r\n    // Emit the LogArtResell event\r\n    emit LogArtResell(\r\n        tokenId,\r\n        artData[tokenId].title,\r\n        artData[tokenId].authorName,\r\n        newPrice,\r\n        artData[tokenId].author,\r\n        msg.sender\r\n    );\r\n}\r\n\r\n}\r\n\r\n\r\ncontract cytoWave {\r\n    cytoWave721 public art721;\r\n    cytoWave1155 public art1155;\r\n\r\n    constructor(address _art721, address _art1155) {\r\n        art721 = cytoWave721(_art721);\r\n        art1155 = cytoWave1155(_art1155);\r\n    }\r\n\r\n}\r\n",
  "sourcePath": "C:\\Users\\PHB\\cytowave\\contracts\\cytoWave.sol",
  "compiler": {
    "name": "solc",
    "version": "0.8.9+commit.e5eed63a.Emscripten.clang"
  },
  "schemaVersion": "3.4.13",
  "updatedAt": "2023-05-08T23:12:03.803Z",
  "networkType": "ethereum",
  "devdoc": {
    "kind": "dev",
    "methods": {
      "balanceOf(address,uint256)": {
        "details": "See {IERC1155-balanceOf}. Requirements: - `account` cannot be the zero address."
      },
      "balanceOfBatch(address[],uint256[])": {
        "details": "See {IERC1155-balanceOfBatch}. Requirements: - `accounts` and `ids` must have the same length."
      },
      "isApprovedForAll(address,address)": {
        "details": "See {IERC1155-isApprovedForAll}."
      },
      "owner()": {
        "details": "Returns the address of the current owner."
      },
      "renounceOwnership()": {
        "details": "Leaves the contract without owner. It will not be possible to call `onlyOwner` functions anymore. Can only be called by the current owner. NOTE: Renouncing ownership will leave the contract without an owner, thereby removing any functionality that is only available to the owner."
      },
      "safeBatchTransferFrom(address,address,uint256[],uint256[],bytes)": {
        "details": "See {IERC1155-safeBatchTransferFrom}."
      },
      "safeTransferFrom(address,address,uint256,uint256,bytes)": {
        "details": "See {IERC1155-safeTransferFrom}."
      },
      "setApprovalForAll(address,bool)": {
        "details": "See {IERC1155-setApprovalForAll}."
      },
      "supportsInterface(bytes4)": {
        "details": "See {IERC165-supportsInterface}."
      },
      "transferOwnership(address)": {
        "details": "Transfers ownership of the contract to a new account (`newOwner`). Can only be called by the current owner."
      },
      "uri(uint256)": {
        "details": "See {IERC1155MetadataURI-uri}. This implementation returns the same URI for *all* token types. It relies on the token type ID substitution mechanism https://eips.ethereum.org/EIPS/eip-1155#metadata[defined in the EIP]. Clients calling this function must replace the `\\{id\\}` substring with the actual token type ID."
      }
    },
    "version": 1
  },
  "userdoc": {
    "kind": "user",
    "methods": {},
    "version": 1
  }
}